{
	"CIC.sol": {
		"Cicerone": {
			"abi": [
				{
					"inputs": [],
					"stateMutability": "nonpayable",
					"type": "constructor"
				},
				{
					"anonymous": false,
					"inputs": [
						{
							"indexed": true,
							"internalType": "address",
							"name": "owner",
							"type": "address"
						},
						{
							"indexed": true,
							"internalType": "address",
							"name": "spender",
							"type": "address"
						},
						{
							"indexed": false,
							"internalType": "uint256",
							"name": "value",
							"type": "uint256"
						}
					],
					"name": "Approval",
					"type": "event"
				},
				{
					"anonymous": false,
					"inputs": [
						{
							"indexed": true,
							"internalType": "address",
							"name": "from",
							"type": "address"
						},
						{
							"indexed": true,
							"internalType": "address",
							"name": "to",
							"type": "address"
						},
						{
							"indexed": false,
							"internalType": "uint256",
							"name": "value",
							"type": "uint256"
						}
					],
					"name": "Transfer",
					"type": "event"
				},
				{
					"inputs": [],
					"name": "TAX_DENOMINATOR",
					"outputs": [
						{
							"internalType": "uint256",
							"name": "",
							"type": "uint256"
						}
					],
					"stateMutability": "view",
					"type": "function"
				},
				{
					"inputs": [],
					"name": "TAX_RATE",
					"outputs": [
						{
							"internalType": "uint256",
							"name": "",
							"type": "uint256"
						}
					],
					"stateMutability": "view",
					"type": "function"
				},
				{
					"inputs": [
						{
							"internalType": "address",
							"name": "_owner",
							"type": "address"
						},
						{
							"internalType": "address",
							"name": "spender",
							"type": "address"
						}
					],
					"name": "allowance",
					"outputs": [
						{
							"internalType": "uint256",
							"name": "",
							"type": "uint256"
						}
					],
					"stateMutability": "view",
					"type": "function"
				},
				{
					"inputs": [
						{
							"internalType": "address",
							"name": "spender",
							"type": "address"
						},
						{
							"internalType": "uint256",
							"name": "amount",
							"type": "uint256"
						}
					],
					"name": "approve",
					"outputs": [
						{
							"internalType": "bool",
							"name": "",
							"type": "bool"
						}
					],
					"stateMutability": "nonpayable",
					"type": "function"
				},
				{
					"inputs": [
						{
							"internalType": "address",
							"name": "account",
							"type": "address"
						}
					],
					"name": "balanceOf",
					"outputs": [
						{
							"internalType": "uint256",
							"name": "",
							"type": "uint256"
						}
					],
					"stateMutability": "view",
					"type": "function"
				},
				{
					"inputs": [],
					"name": "decimals",
					"outputs": [
						{
							"internalType": "uint8",
							"name": "",
							"type": "uint8"
						}
					],
					"stateMutability": "view",
					"type": "function"
				},
				{
					"inputs": [],
					"name": "name",
					"outputs": [
						{
							"internalType": "string",
							"name": "",
							"type": "string"
						}
					],
					"stateMutability": "view",
					"type": "function"
				},
				{
					"inputs": [],
					"name": "owner",
					"outputs": [
						{
							"internalType": "address",
							"name": "",
							"type": "address"
						}
					],
					"stateMutability": "view",
					"type": "function"
				},
				{
					"inputs": [],
					"name": "symbol",
					"outputs": [
						{
							"internalType": "string",
							"name": "",
							"type": "string"
						}
					],
					"stateMutability": "view",
					"type": "function"
				},
				{
					"inputs": [],
					"name": "totalSupply",
					"outputs": [
						{
							"internalType": "uint256",
							"name": "",
							"type": "uint256"
						}
					],
					"stateMutability": "view",
					"type": "function"
				},
				{
					"inputs": [
						{
							"internalType": "address",
							"name": "to",
							"type": "address"
						},
						{
							"internalType": "uint256",
							"name": "amount",
							"type": "uint256"
						}
					],
					"name": "transfer",
					"outputs": [
						{
							"internalType": "bool",
							"name": "",
							"type": "bool"
						}
					],
					"stateMutability": "nonpayable",
					"type": "function"
				},
				{
					"inputs": [
						{
							"internalType": "address",
							"name": "from",
							"type": "address"
						},
						{
							"internalType": "address",
							"name": "to",
							"type": "address"
						},
						{
							"internalType": "uint256",
							"name": "amount",
							"type": "uint256"
						}
					],
					"name": "transferFrom",
					"outputs": [
						{
							"internalType": "bool",
							"name": "",
							"type": "bool"
						}
					],
					"stateMutability": "nonpayable",
					"type": "function"
				}
			],
			"devdoc": {
				"kind": "dev",
				"methods": {
					"allowance(address,address)": {
						"params": {
							"_owner": "代币所有者的地址",
							"spender": "被授权方的地址"
						},
						"returns": {
							"_0": "spender可以从_owner处转账的剩余额度"
						}
					},
					"approve(address,uint256)": {
						"params": {
							"amount": "授权的代币额度",
							"spender": "被授权方的地址"
						},
						"returns": {
							"_0": "成功返回true"
						}
					},
					"balanceOf(address)": {
						"params": {
							"account": "要查询余额的地址"
						},
						"returns": {
							"_0": "账户的代币余额"
						}
					},
					"constructor": {
						"details": "设置合约创建者为owner，并铸造全部代币给owner"
					},
					"transfer(address,uint256)": {
						"params": {
							"amount": "要转账的代币数量 (包含将被扣除的1%税费)",
							"to": "代币接收方地址"
						},
						"returns": {
							"_0": "成功返回true"
						}
					},
					"transferFrom(address,address,uint256)": {
						"params": {
							"amount": "要转账的代币数量 (包含将被扣除的1%税费)",
							"from": "代币所有者的地址",
							"to": "代币接收方的地址"
						},
						"returns": {
							"_0": "成功返回true"
						}
					}
				},
				"title": "Cicerone",
				"version": 1
			},
			"evm": {
				"assembly": "    /* \"CIC.sol\":315:6590  contract Cicerone {... */\n  mstore(0x40, 0xa0)\n    /* \"CIC.sol\":1817:2381  constructor() {... */\n  callvalue\n  dup1\n  iszero\n  tag_1\n  jumpi\n  0x00\n  dup1\n  revert\ntag_1:\n  pop\n    /* \"CIC.sol\":1919:1929  msg.sender */\n  caller\n    /* \"CIC.sol\":1911:1929  owner = msg.sender */\n  0xffffffffffffffffffffffffffffffffffffffff\n  and\n  0x80\n  dup2\n  0xffffffffffffffffffffffffffffffffffffffff\n  and\n  dup2\n  mstore\n  pop\n  pop\n    /* \"CIC.sol\":1994:2015  uint256 initialSupply */\n  0x00\n    /* \"CIC.sol\":625:626  6 */\n  0x06\n    /* \"CIC.sol\":2035:2037  10 */\n  0x0a\n    /* \"CIC.sol\":2035:2049  10 ** decimals */\n  tag_4\n  swap2\n  swap1\n  tag_5\n  jump\t// in\ntag_4:\n    /* \"CIC.sol\":2018:2031  1_000_000_000 */\n  0x3b9aca00\n    /* \"CIC.sol\":2018:2050  1_000_000_000 * (10 ** decimals) */\n  tag_6\n  swap2\n  swap1\n  tag_7\n  jump\t// in\ntag_6:\n    /* \"CIC.sol\":1994:2050  uint256 initialSupply = 1_000_000_000 * (10 ** decimals) */\n  swap1\n  pop\n    /* \"CIC.sol\":2106:2119  initialSupply */\n  dup1\n    /* \"CIC.sol\":2092:2103  totalSupply */\n  0x00\n    /* \"CIC.sol\":2092:2119  totalSupply = initialSupply */\n  dup2\n  swap1\n  sstore\n  pop\n    /* \"CIC.sol\":2206:2219  initialSupply */\n  dup1\n    /* \"CIC.sol\":2182:2191  _balances */\n  0x01\n    /* \"CIC.sol\":2182:2203  _balances[msg.sender] */\n  0x00\n    /* \"CIC.sol\":2192:2202  msg.sender */\n  caller\n    /* \"CIC.sol\":2182:2203  _balances[msg.sender] */\n  0xffffffffffffffffffffffffffffffffffffffff\n  and\n  0xffffffffffffffffffffffffffffffffffffffff\n  and\n  dup2\n  mstore\n  0x20\n  add\n  swap1\n  dup2\n  mstore\n  0x20\n  add\n  0x00\n  keccak256\n    /* \"CIC.sol\":2182:2219  _balances[msg.sender] = initialSupply */\n  dup2\n  swap1\n  sstore\n  pop\n    /* \"CIC.sol\":2347:2357  msg.sender */\n  caller\n    /* \"CIC.sol\":2326:2373  Transfer(address(0), msg.sender, initialSupply) */\n  0xffffffffffffffffffffffffffffffffffffffff\n  and\n    /* \"CIC.sol\":2343:2344  0 */\n  0x00\n    /* \"CIC.sol\":2326:2373  Transfer(address(0), msg.sender, initialSupply) */\n  0xffffffffffffffffffffffffffffffffffffffff\n  and\n  0xddf252ad1be2c89b69c2b068fc378daa952ba7f163c4a11628f55a4df523b3ef\n    /* \"CIC.sol\":2359:2372  initialSupply */\n  dup4\n    /* \"CIC.sol\":2326:2373  Transfer(address(0), msg.sender, initialSupply) */\n  mload(0x40)\n  tag_8\n  swap2\n  swap1\n  tag_9\n  jump\t// in\ntag_8:\n  mload(0x40)\n  dup1\n  swap2\n  sub\n  swap1\n  log3\n    /* \"CIC.sol\":1831:2381  {... */\n  pop\n    /* \"CIC.sol\":315:6590  contract Cicerone {... */\n  jump(tag_10)\n    /* \"#utility.yul\":7:187   */\ntag_11:\n    /* \"#utility.yul\":55:132   */\n  0x4e487b7100000000000000000000000000000000000000000000000000000000\n    /* \"#utility.yul\":52:53   */\n  0x00\n    /* \"#utility.yul\":45:133   */\n  mstore\n    /* \"#utility.yul\":152:156   */\n  0x11\n    /* \"#utility.yul\":149:150   */\n  0x04\n    /* \"#utility.yul\":142:157   */\n  mstore\n    /* \"#utility.yul\":176:180   */\n  0x24\n    /* \"#utility.yul\":173:174   */\n  0x00\n    /* \"#utility.yul\":166:181   */\n  revert\n    /* \"#utility.yul\":193:295   */\ntag_12:\n    /* \"#utility.yul\":235:243   */\n  0x00\n    /* \"#utility.yul\":282:287   */\n  dup2\n    /* \"#utility.yul\":279:280   */\n  0x01\n    /* \"#utility.yul\":275:288   */\n  shr\n    /* \"#utility.yul\":254:288   */\n  swap1\n  pop\n    /* \"#utility.yul\":193:295   */\n  swap2\n  swap1\n  pop\n  jump\t// out\n    /* \"#utility.yul\":301:1149   */\ntag_13:\n    /* \"#utility.yul\":362:367   */\n  0x00\n    /* \"#utility.yul\":369:373   */\n  dup1\n    /* \"#utility.yul\":393:399   */\n  dup3\n    /* \"#utility.yul\":384:399   */\n  swap2\n  pop\n    /* \"#utility.yul\":417:422   */\n  dup4\n    /* \"#utility.yul\":408:422   */\n  swap1\n  pop\n    /* \"#utility.yul\":431:1143   */\ntag_22:\n    /* \"#utility.yul\":452:453   */\n  0x01\n    /* \"#utility.yul\":442:450   */\n  dup6\n    /* \"#utility.yul\":439:454   */\n  gt\n    /* \"#utility.yul\":431:1143   */\n  iszero\n  tag_24\n  jumpi\n    /* \"#utility.yul\":547:551   */\n  dup1\n    /* \"#utility.yul\":542:545   */\n  dup7\n    /* \"#utility.yul\":538:552   */\n  div\n    /* \"#utility.yul\":532:536   */\n  dup2\n    /* \"#utility.yul\":529:553   */\n  gt\n    /* \"#utility.yul\":526:576   */\n  iszero\n  tag_25\n  jumpi\n    /* \"#utility.yul\":556:574   */\n  tag_26\n  tag_11\n  jump\t// in\ntag_26:\n    /* \"#utility.yul\":526:576   */\ntag_25:\n    /* \"#utility.yul\":606:607   */\n  0x01\n    /* \"#utility.yul\":596:604   */\n  dup6\n    /* \"#utility.yul\":592:608   */\n  and\n    /* \"#utility.yul\":589:1040   */\n  iszero\n  tag_27\n  jumpi\n    /* \"#utility.yul\":1021:1025   */\n  dup1\n    /* \"#utility.yul\":1014:1019   */\n  dup3\n    /* \"#utility.yul\":1010:1026   */\n  mul\n    /* \"#utility.yul\":1001:1026   */\n  swap2\n  pop\n    /* \"#utility.yul\":589:1040   */\ntag_27:\n    /* \"#utility.yul\":1071:1075   */\n  dup1\n    /* \"#utility.yul\":1065:1069   */\n  dup2\n    /* \"#utility.yul\":1061:1076   */\n  mul\n    /* \"#utility.yul\":1053:1076   */\n  swap1\n  pop\n    /* \"#utility.yul\":1101:1133   */\n  tag_28\n    /* \"#utility.yul\":1124:1132   */\n  dup6\n    /* \"#utility.yul\":1101:1133   */\n  tag_12\n  jump\t// in\ntag_28:\n    /* \"#utility.yul\":1089:1133   */\n  swap5\n  pop\n    /* \"#utility.yul\":431:1143   */\n  jump(tag_22)\ntag_24:\n    /* \"#utility.yul\":301:1149   */\n  swap5\n  pop\n  swap5\n  swap3\n  pop\n  pop\n  pop\n  jump\t// out\n    /* \"#utility.yul\":1155:2228   */\ntag_14:\n    /* \"#utility.yul\":1209:1214   */\n  0x00\n    /* \"#utility.yul\":1400:1408   */\n  dup3\n    /* \"#utility.yul\":1390:1430   */\n  tag_30\n  jumpi\n    /* \"#utility.yul\":1421:1422   */\n  0x01\n    /* \"#utility.yul\":1412:1422   */\n  swap1\n  pop\n    /* \"#utility.yul\":1423:1428   */\n  jump(tag_29)\n    /* \"#utility.yul\":1390:1430   */\ntag_30:\n    /* \"#utility.yul\":1449:1453   */\n  dup2\n    /* \"#utility.yul\":1439:1475   */\n  tag_31\n  jumpi\n    /* \"#utility.yul\":1466:1467   */\n  0x00\n    /* \"#utility.yul\":1457:1467   */\n  swap1\n  pop\n    /* \"#utility.yul\":1468:1473   */\n  jump(tag_29)\n    /* \"#utility.yul\":1439:1475   */\ntag_31:\n    /* \"#utility.yul\":1535:1539   */\n  dup2\n    /* \"#utility.yul\":1583:1584   */\n  0x01\n    /* \"#utility.yul\":1578:1605   */\n  dup2\n  eq\n  tag_33\n  jumpi\n    /* \"#utility.yul\":1619:1620   */\n  0x02\n    /* \"#utility.yul\":1614:1805   */\n  dup2\n  eq\n  tag_34\n  jumpi\n    /* \"#utility.yul\":1528:1805   */\n  jump(tag_32)\n    /* \"#utility.yul\":1578:1605   */\ntag_33:\n    /* \"#utility.yul\":1596:1597   */\n  0x01\n    /* \"#utility.yul\":1587:1597   */\n  swap2\n  pop\n    /* \"#utility.yul\":1598:1603   */\n  pop\n  jump(tag_29)\n    /* \"#utility.yul\":1614:1805   */\ntag_34:\n    /* \"#utility.yul\":1659:1662   */\n  0xff\n    /* \"#utility.yul\":1649:1657   */\n  dup5\n    /* \"#utility.yul\":1646:1663   */\n  gt\n    /* \"#utility.yul\":1643:1686   */\n  iszero\n  tag_35\n  jumpi\n    /* \"#utility.yul\":1666:1684   */\n  tag_36\n  tag_11\n  jump\t// in\ntag_36:\n    /* \"#utility.yul\":1643:1686   */\ntag_35:\n    /* \"#utility.yul\":1715:1723   */\n  dup4\n    /* \"#utility.yul\":1712:1713   */\n  0x02\n    /* \"#utility.yul\":1708:1724   */\n  exp\n    /* \"#utility.yul\":1699:1724   */\n  swap2\n  pop\n    /* \"#utility.yul\":1750:1753   */\n  dup5\n    /* \"#utility.yul\":1743:1748   */\n  dup3\n    /* \"#utility.yul\":1740:1754   */\n  gt\n    /* \"#utility.yul\":1737:1777   */\n  iszero\n  tag_37\n  jumpi\n    /* \"#utility.yul\":1757:1775   */\n  tag_38\n  tag_11\n  jump\t// in\ntag_38:\n    /* \"#utility.yul\":1737:1777   */\ntag_37:\n    /* \"#utility.yul\":1790:1795   */\n  pop\n  jump(tag_29)\n    /* \"#utility.yul\":1528:1805   */\ntag_32:\n  pop\n    /* \"#utility.yul\":1914:1916   */\n  0x20\n    /* \"#utility.yul\":1904:1912   */\n  dup4\n    /* \"#utility.yul\":1901:1917   */\n  lt\n    /* \"#utility.yul\":1895:1898   */\n  0x0133\n    /* \"#utility.yul\":1889:1893   */\n  dup4\n    /* \"#utility.yul\":1886:1899   */\n  lt\n    /* \"#utility.yul\":1882:1918   */\n  and\n    /* \"#utility.yul\":1864:1866   */\n  0x4e\n    /* \"#utility.yul\":1854:1862   */\n  dup5\n    /* \"#utility.yul\":1851:1867   */\n  lt\n    /* \"#utility.yul\":1846:1848   */\n  0x0b\n    /* \"#utility.yul\":1840:1844   */\n  dup5\n    /* \"#utility.yul\":1837:1849   */\n  lt\n    /* \"#utility.yul\":1833:1868   */\n  and\n    /* \"#utility.yul\":1817:1928   */\n  or\n    /* \"#utility.yul\":1814:2060   */\n  iszero\n  tag_39\n  jumpi\n    /* \"#utility.yul\":1970:1978   */\n  dup3\n    /* \"#utility.yul\":1964:1968   */\n  dup3\n    /* \"#utility.yul\":1960:1979   */\n  exp\n    /* \"#utility.yul\":1951:1979   */\n  swap1\n  pop\n    /* \"#utility.yul\":2005:2008   */\n  dup4\n    /* \"#utility.yul\":1998:2003   */\n  dup2\n    /* \"#utility.yul\":1995:2009   */\n  gt\n    /* \"#utility.yul\":1992:2032   */\n  iszero\n  tag_40\n  jumpi\n    /* \"#utility.yul\":2012:2030   */\n  tag_41\n  tag_11\n  jump\t// in\ntag_41:\n    /* \"#utility.yul\":1992:2032   */\ntag_40:\n    /* \"#utility.yul\":2045:2050   */\n  jump(tag_29)\n    /* \"#utility.yul\":1814:2060   */\ntag_39:\n    /* \"#utility.yul\":2085:2127   */\n  tag_42\n    /* \"#utility.yul\":2123:2126   */\n  dup5\n    /* \"#utility.yul\":2113:2121   */\n  dup5\n    /* \"#utility.yul\":2107:2111   */\n  dup5\n    /* \"#utility.yul\":2104:2105   */\n  0x01\n    /* \"#utility.yul\":2085:2127   */\n  tag_13\n  jump\t// in\ntag_42:\n    /* \"#utility.yul\":2070:2127   */\n  swap3\n  pop\n  swap1\n  pop\n    /* \"#utility.yul\":2159:2163   */\n  dup2\n    /* \"#utility.yul\":2154:2157   */\n  dup5\n    /* \"#utility.yul\":2150:2164   */\n  div\n    /* \"#utility.yul\":2143:2148   */\n  dup2\n    /* \"#utility.yul\":2140:2165   */\n  gt\n    /* \"#utility.yul\":2137:2188   */\n  iszero\n  tag_43\n  jumpi\n    /* \"#utility.yul\":2168:2186   */\n  tag_44\n  tag_11\n  jump\t// in\ntag_44:\n    /* \"#utility.yul\":2137:2188   */\ntag_43:\n    /* \"#utility.yul\":2217:2221   */\n  dup2\n    /* \"#utility.yul\":2210:2215   */\n  dup2\n    /* \"#utility.yul\":2206:2222   */\n  mul\n    /* \"#utility.yul\":2197:2222   */\n  swap1\n  pop\n    /* \"#utility.yul\":1155:2228   */\ntag_29:\n  swap4\n  swap3\n  pop\n  pop\n  pop\n  jump\t// out\n    /* \"#utility.yul\":2234:2311   */\ntag_15:\n    /* \"#utility.yul\":2271:2278   */\n  0x00\n    /* \"#utility.yul\":2300:2305   */\n  dup2\n    /* \"#utility.yul\":2289:2305   */\n  swap1\n  pop\n    /* \"#utility.yul\":2234:2311   */\n  swap2\n  swap1\n  pop\n  jump\t// out\n    /* \"#utility.yul\":2317:2403   */\ntag_16:\n    /* \"#utility.yul\":2352:2359   */\n  0x00\n    /* \"#utility.yul\":2392:2396   */\n  0xff\n    /* \"#utility.yul\":2385:2390   */\n  dup3\n    /* \"#utility.yul\":2381:2397   */\n  and\n    /* \"#utility.yul\":2370:2397   */\n  swap1\n  pop\n    /* \"#utility.yul\":2317:2403   */\n  swap2\n  swap1\n  pop\n  jump\t// out\n    /* \"#utility.yul\":2409:2690   */\ntag_5:\n    /* \"#utility.yul\":2467:2472   */\n  0x00\n    /* \"#utility.yul\":2491:2514   */\n  tag_48\n    /* \"#utility.yul\":2509:2513   */\n  dup3\n    /* \"#utility.yul\":2491:2514   */\n  tag_15\n  jump\t// in\ntag_48:\n    /* \"#utility.yul\":2483:2514   */\n  swap2\n  pop\n    /* \"#utility.yul\":2535:2560   */\n  tag_49\n    /* \"#utility.yul\":2551:2559   */\n  dup4\n    /* \"#utility.yul\":2535:2560   */\n  tag_16\n  jump\t// in\ntag_49:\n    /* \"#utility.yul\":2523:2560   */\n  swap3\n  pop\n    /* \"#utility.yul\":2579:2683   */\n  tag_50\n    /* \"#utility.yul\":2616:2682   */\n  0xffffffffffffffffffffffffffffffffffffffffffffffffffffffffffffffff\n    /* \"#utility.yul\":2606:2614   */\n  dup5\n    /* \"#utility.yul\":2600:2604   */\n  dup5\n    /* \"#utility.yul\":2579:2683   */\n  tag_14\n  jump\t// in\ntag_50:\n    /* \"#utility.yul\":2570:2683   */\n  swap1\n  pop\n    /* \"#utility.yul\":2409:2690   */\n  swap3\n  swap2\n  pop\n  pop\n  jump\t// out\n    /* \"#utility.yul\":2696:3106   */\ntag_7:\n    /* \"#utility.yul\":2736:2743   */\n  0x00\n    /* \"#utility.yul\":2759:2779   */\n  tag_52\n    /* \"#utility.yul\":2777:2778   */\n  dup3\n    /* \"#utility.yul\":2759:2779   */\n  tag_15\n  jump\t// in\ntag_52:\n    /* \"#utility.yul\":2754:2779   */\n  swap2\n  pop\n    /* \"#utility.yul\":2793:2813   */\n  tag_53\n    /* \"#utility.yul\":2811:2812   */\n  dup4\n    /* \"#utility.yul\":2793:2813   */\n  tag_15\n  jump\t// in\ntag_53:\n    /* \"#utility.yul\":2788:2813   */\n  swap3\n  pop\n    /* \"#utility.yul\":2848:2849   */\n  dup3\n    /* \"#utility.yul\":2845:2846   */\n  dup3\n    /* \"#utility.yul\":2841:2850   */\n  mul\n    /* \"#utility.yul\":2870:2900   */\n  tag_54\n    /* \"#utility.yul\":2888:2899   */\n  dup2\n    /* \"#utility.yul\":2870:2900   */\n  tag_15\n  jump\t// in\ntag_54:\n    /* \"#utility.yul\":2859:2900   */\n  swap2\n  pop\n    /* \"#utility.yul\":3049:3050   */\n  dup3\n    /* \"#utility.yul\":3040:3047   */\n  dup3\n    /* \"#utility.yul\":3036:3051   */\n  div\n    /* \"#utility.yul\":3033:3034   */\n  dup5\n    /* \"#utility.yul\":3030:3052   */\n  eq\n    /* \"#utility.yul\":3010:3011   */\n  dup4\n    /* \"#utility.yul\":3003:3012   */\n  iszero\n    /* \"#utility.yul\":2983:3066   */\n  or\n    /* \"#utility.yul\":2960:3099   */\n  tag_55\n  jumpi\n    /* \"#utility.yul\":3079:3097   */\n  tag_56\n  tag_11\n  jump\t// in\ntag_56:\n    /* \"#utility.yul\":2960:3099   */\ntag_55:\n    /* \"#utility.yul\":2744:3106   */\n  pop\n    /* \"#utility.yul\":2696:3106   */\n  swap3\n  swap2\n  pop\n  pop\n  jump\t// out\n    /* \"#utility.yul\":3112:3230   */\ntag_17:\n    /* \"#utility.yul\":3199:3223   */\n  tag_58\n    /* \"#utility.yul\":3217:3222   */\n  dup2\n    /* \"#utility.yul\":3199:3223   */\n  tag_15\n  jump\t// in\ntag_58:\n    /* \"#utility.yul\":3194:3197   */\n  dup3\n    /* \"#utility.yul\":3187:3224   */\n  mstore\n    /* \"#utility.yul\":3112:3230   */\n  pop\n  pop\n  jump\t// out\n    /* \"#utility.yul\":3236:3458   */\ntag_9:\n    /* \"#utility.yul\":3329:3333   */\n  0x00\n    /* \"#utility.yul\":3367:3369   */\n  0x20\n    /* \"#utility.yul\":3356:3365   */\n  dup3\n    /* \"#utility.yul\":3352:3370   */\n  add\n    /* \"#utility.yul\":3344:3370   */\n  swap1\n  pop\n    /* \"#utility.yul\":3380:3451   */\n  tag_60\n    /* \"#utility.yul\":3448:3449   */\n  0x00\n    /* \"#utility.yul\":3437:3446   */\n  dup4\n    /* \"#utility.yul\":3433:3450   */\n  add\n    /* \"#utility.yul\":3424:3430   */\n  dup5\n    /* \"#utility.yul\":3380:3451   */\n  tag_17\n  jump\t// in\ntag_60:\n    /* \"#utility.yul\":3236:3458   */\n  swap3\n  swap2\n  pop\n  pop\n  jump\t// out\n    /* \"CIC.sol\":315:6590  contract Cicerone {... */\ntag_10:\n  mload(0x80)\n  codecopy(0x00, dataOffset(sub_0), dataSize(sub_0))\n  0x00\n  assignImmutable(\"0x81e080ffc23e8b8d44dd829bc823229e92b893eb1d8f624419d3f5682eb97fc3\")\n  return(0x00, dataSize(sub_0))\nstop\n\nsub_0: assembly {\n        /* \"CIC.sol\":315:6590  contract Cicerone {... */\n      mstore(0x40, 0x80)\n      callvalue\n      dup1\n      iszero\n      tag_1\n      jumpi\n      0x00\n      dup1\n      revert\n    tag_1:\n      pop\n      jumpi(tag_2, lt(calldatasize, 0x04))\n      shr(0xe0, calldataload(0x00))\n      dup1\n      0x83f170be\n      gt\n      tag_15\n      jumpi\n      dup1\n      0x83f170be\n      eq\n      tag_9\n      jumpi\n      dup1\n      0x8da5cb5b\n      eq\n      tag_10\n      jumpi\n      dup1\n      0x95d89b41\n      eq\n      tag_11\n      jumpi\n      dup1\n      0xa51c9ace\n      eq\n      tag_12\n      jumpi\n      dup1\n      0xa9059cbb\n      eq\n      tag_13\n      jumpi\n      dup1\n      0xdd62ed3e\n      eq\n      tag_14\n      jumpi\n      jump(tag_2)\n    tag_15:\n      dup1\n      0x06fdde03\n      eq\n      tag_3\n      jumpi\n      dup1\n      0x095ea7b3\n      eq\n      tag_4\n      jumpi\n      dup1\n      0x18160ddd\n      eq\n      tag_5\n      jumpi\n      dup1\n      0x23b872dd\n      eq\n      tag_6\n      jumpi\n      dup1\n      0x313ce567\n      eq\n      tag_7\n      jumpi\n      dup1\n      0x70a08231\n      eq\n      tag_8\n      jumpi\n    tag_2:\n      0x00\n      dup1\n      revert\n        /* \"CIC.sol\":416:456  string public constant name = \"Cicerone\" */\n    tag_3:\n      tag_16\n      tag_17\n      jump\t// in\n    tag_16:\n      mload(0x40)\n      tag_18\n      swap2\n      swap1\n      tag_19\n      jump\t// in\n    tag_18:\n      mload(0x40)\n      dup1\n      swap2\n      sub\n      swap1\n      return\n        /* \"CIC.sol\":5412:5683  function approve(address spender, uint256 amount) public returns (bool) {... */\n    tag_4:\n      tag_20\n      0x04\n      dup1\n      calldatasize\n      sub\n      dup2\n      add\n      swap1\n      tag_21\n      swap2\n      swap1\n      tag_22\n      jump\t// in\n    tag_21:\n      tag_23\n      jump\t// in\n    tag_20:\n      mload(0x40)\n      tag_24\n      swap2\n      swap1\n      tag_25\n      jump\t// in\n    tag_24:\n      mload(0x40)\n      dup1\n      swap2\n      sub\n      swap1\n      return\n        /* \"CIC.sol\":730:756  uint256 public totalSupply */\n    tag_5:\n      tag_26\n      tag_27\n      jump\t// in\n    tag_26:\n      mload(0x40)\n      tag_28\n      swap2\n      swap1\n      tag_29\n      jump\t// in\n    tag_28:\n      mload(0x40)\n      dup1\n      swap2\n      sub\n      swap1\n      return\n        /* \"CIC.sol\":5968:6587  function transferFrom(address from, address to, uint256 amount) public returns (bool) {... */\n    tag_6:\n      tag_30\n      0x04\n      dup1\n      calldatasize\n      sub\n      dup2\n      add\n      swap1\n      tag_31\n      swap2\n      swap1\n      tag_32\n      jump\t// in\n    tag_31:\n      tag_33\n      jump\t// in\n    tag_30:\n      mload(0x40)\n      tag_34\n      swap2\n      swap1\n      tag_25\n      jump\t// in\n    tag_34:\n      mload(0x40)\n      dup1\n      swap2\n      sub\n      swap1\n      return\n        /* \"CIC.sol\":592:626  uint8 public constant decimals = 6 */\n    tag_7:\n      tag_35\n      tag_36\n      jump\t// in\n    tag_35:\n      mload(0x40)\n      tag_37\n      swap2\n      swap1\n      tag_38\n      jump\t// in\n    tag_37:\n      mload(0x40)\n      dup1\n      swap2\n      sub\n      swap1\n      return\n        /* \"CIC.sol\":2591:2701  function balanceOf(address account) public view returns (uint256) {... */\n    tag_8:\n      tag_39\n      0x04\n      dup1\n      calldatasize\n      sub\n      dup2\n      add\n      swap1\n      tag_40\n      swap2\n      swap1\n      tag_41\n      jump\t// in\n    tag_40:\n      tag_42\n      jump\t// in\n    tag_39:\n      mload(0x40)\n      tag_43\n      swap2\n      swap1\n      tag_29\n      jump\t// in\n    tag_43:\n      mload(0x40)\n      dup1\n      swap2\n      sub\n      swap1\n      return\n        /* \"CIC.sol\":1199:1237  uint256 public constant TAX_RATE = 100 */\n    tag_9:\n      tag_44\n      tag_45\n      jump\t// in\n    tag_44:\n      mload(0x40)\n      tag_46\n      swap2\n      swap1\n      tag_29\n      jump\t// in\n    tag_46:\n      mload(0x40)\n      dup1\n      swap2\n      sub\n      swap1\n      return\n        /* \"CIC.sol\":1087:1117  address public immutable owner */\n    tag_10:\n      tag_47\n      tag_48\n      jump\t// in\n    tag_47:\n      mload(0x40)\n      tag_49\n      swap2\n      swap1\n      tag_50\n      jump\t// in\n    tag_49:\n      mload(0x40)\n      dup1\n      swap2\n      sub\n      swap1\n      return\n        /* \"CIC.sol\":490:527  string public constant symbol = \"CIC\" */\n    tag_11:\n      tag_51\n      tag_52\n      jump\t// in\n    tag_51:\n      mload(0x40)\n      tag_53\n      swap2\n      swap1\n      tag_19\n      jump\t// in\n    tag_53:\n      mload(0x40)\n      dup1\n      swap2\n      sub\n      swap1\n      return\n        /* \"CIC.sol\":1289:1336  uint256 public constant TAX_DENOMINATOR = 10000 */\n    tag_12:\n      tag_54\n      tag_55\n      jump\t// in\n    tag_54:\n      mload(0x40)\n      tag_56\n      swap2\n      swap1\n      tag_29\n      jump\t// in\n    tag_56:\n      mload(0x40)\n      dup1\n      swap2\n      sub\n      swap1\n      return\n        /* \"CIC.sol\":4976:5185  function transfer(address to, uint256 amount) public returns (bool) {... */\n    tag_13:\n      tag_57\n      0x04\n      dup1\n      calldatasize\n      sub\n      dup2\n      add\n      swap1\n      tag_58\n      swap2\n      swap1\n      tag_22\n      jump\t// in\n    tag_58:\n      tag_59\n      jump\t// in\n    tag_57:\n      mload(0x40)\n      tag_60\n      swap2\n      swap1\n      tag_25\n      jump\t// in\n    tag_60:\n      mload(0x40)\n      dup1\n      swap2\n      sub\n      swap1\n      return\n        /* \"CIC.sol\":2917:3053  function allowance(address _owner, address spender) public view returns (uint256) {... */\n    tag_14:\n      tag_61\n      0x04\n      dup1\n      calldatasize\n      sub\n      dup2\n      add\n      swap1\n      tag_62\n      swap2\n      swap1\n      tag_63\n      jump\t// in\n    tag_62:\n      tag_64\n      jump\t// in\n    tag_61:\n      mload(0x40)\n      tag_65\n      swap2\n      swap1\n      tag_29\n      jump\t// in\n    tag_65:\n      mload(0x40)\n      dup1\n      swap2\n      sub\n      swap1\n      return\n        /* \"CIC.sol\":416:456  string public constant name = \"Cicerone\" */\n    tag_17:\n      mload(0x40)\n      dup1\n      0x40\n      add\n      0x40\n      mstore\n      dup1\n      0x08\n      dup2\n      mstore\n      0x20\n      add\n      0x43696365726f6e65000000000000000000000000000000000000000000000000\n      dup2\n      mstore\n      pop\n      dup2\n      jump\t// out\n        /* \"CIC.sol\":5412:5683  function approve(address spender, uint256 amount) public returns (bool) {... */\n    tag_23:\n        /* \"CIC.sol\":5478:5482  bool */\n      0x00\n        /* \"CIC.sol\":5561:5567  amount */\n      dup2\n        /* \"CIC.sol\":5526:5537  _allowances */\n      0x02\n        /* \"CIC.sol\":5526:5549  _allowances[msg.sender] */\n      0x00\n        /* \"CIC.sol\":5538:5548  msg.sender */\n      caller\n        /* \"CIC.sol\":5526:5549  _allowances[msg.sender] */\n      0xffffffffffffffffffffffffffffffffffffffff\n      and\n      0xffffffffffffffffffffffffffffffffffffffff\n      and\n      dup2\n      mstore\n      0x20\n      add\n      swap1\n      dup2\n      mstore\n      0x20\n      add\n      0x00\n      keccak256\n        /* \"CIC.sol\":5526:5558  _allowances[msg.sender][spender] */\n      0x00\n        /* \"CIC.sol\":5550:5557  spender */\n      dup6\n        /* \"CIC.sol\":5526:5558  _allowances[msg.sender][spender] */\n      0xffffffffffffffffffffffffffffffffffffffff\n      and\n      0xffffffffffffffffffffffffffffffffffffffff\n      and\n      dup2\n      mstore\n      0x20\n      add\n      swap1\n      dup2\n      mstore\n      0x20\n      add\n      0x00\n      keccak256\n        /* \"CIC.sol\":5526:5567  _allowances[msg.sender][spender] = amount */\n      dup2\n      swap1\n      sstore\n      pop\n        /* \"CIC.sol\":5637:5644  spender */\n      dup3\n        /* \"CIC.sol\":5616:5653  Approval(msg.sender, spender, amount) */\n      0xffffffffffffffffffffffffffffffffffffffff\n      and\n        /* \"CIC.sol\":5625:5635  msg.sender */\n      caller\n        /* \"CIC.sol\":5616:5653  Approval(msg.sender, spender, amount) */\n      0xffffffffffffffffffffffffffffffffffffffff\n      and\n      0x8c5be1e5ebec7d5bd14f71427d1e84f3dd0314c0f7b2291e5b200ac8c7c3b925\n        /* \"CIC.sol\":5646:5652  amount */\n      dup5\n        /* \"CIC.sol\":5616:5653  Approval(msg.sender, spender, amount) */\n      mload(0x40)\n      tag_67\n      swap2\n      swap1\n      tag_29\n      jump\t// in\n    tag_67:\n      mload(0x40)\n      dup1\n      swap2\n      sub\n      swap1\n      log3\n        /* \"CIC.sol\":5671:5675  true */\n      0x01\n        /* \"CIC.sol\":5664:5675  return true */\n      swap1\n      pop\n        /* \"CIC.sol\":5412:5683  function approve(address spender, uint256 amount) public returns (bool) {... */\n      swap3\n      swap2\n      pop\n      pop\n      jump\t// out\n        /* \"CIC.sol\":730:756  uint256 public totalSupply */\n    tag_27:\n      sload(0x00)\n      dup2\n      jump\t// out\n        /* \"CIC.sol\":5968:6587  function transferFrom(address from, address to, uint256 amount) public returns (bool) {... */\n    tag_33:\n        /* \"CIC.sol\":6048:6052  bool */\n      0x00\n        /* \"CIC.sol\":6284:6290  amount */\n      dup2\n        /* \"CIC.sol\":6251:6262  _allowances */\n      0x02\n        /* \"CIC.sol\":6251:6268  _allowances[from] */\n      0x00\n        /* \"CIC.sol\":6263:6267  from */\n      dup7\n        /* \"CIC.sol\":6251:6268  _allowances[from] */\n      0xffffffffffffffffffffffffffffffffffffffff\n      and\n      0xffffffffffffffffffffffffffffffffffffffff\n      and\n      dup2\n      mstore\n      0x20\n      add\n      swap1\n      dup2\n      mstore\n      0x20\n      add\n      0x00\n      keccak256\n        /* \"CIC.sol\":6251:6280  _allowances[from][msg.sender] */\n      0x00\n        /* \"CIC.sol\":6269:6279  msg.sender */\n      caller\n        /* \"CIC.sol\":6251:6280  _allowances[from][msg.sender] */\n      0xffffffffffffffffffffffffffffffffffffffff\n      and\n      0xffffffffffffffffffffffffffffffffffffffff\n      and\n      dup2\n      mstore\n      0x20\n      add\n      swap1\n      dup2\n      mstore\n      0x20\n      add\n      0x00\n      keccak256\n      sload\n        /* \"CIC.sol\":6251:6290  _allowances[from][msg.sender] >= amount */\n      lt\n      iszero\n        /* \"CIC.sol\":6243:6335  require(_allowances[from][msg.sender] >= amount, \"ERC20: transfer amount exceeds allowance\") */\n      tag_69\n      jumpi\n      mload(0x40)\n      0x08c379a000000000000000000000000000000000000000000000000000000000\n      dup2\n      mstore\n      0x04\n      add\n      tag_70\n      swap1\n      tag_71\n      jump\t// in\n    tag_70:\n      mload(0x40)\n      dup1\n      swap2\n      sub\n      swap1\n      revert\n    tag_69:\n        /* \"CIC.sol\":6400:6427  _transfer(from, to, amount) */\n      tag_72\n        /* \"CIC.sol\":6410:6414  from */\n      dup5\n        /* \"CIC.sol\":6416:6418  to */\n      dup5\n        /* \"CIC.sol\":6420:6426  amount */\n      dup5\n        /* \"CIC.sol\":6400:6409  _transfer */\n      tag_73\n        /* \"CIC.sol\":6400:6427  _transfer(from, to, amount) */\n      jump\t// in\n    tag_72:\n        /* \"CIC.sol\":6549:6555  amount */\n      dup2\n        /* \"CIC.sol\":6516:6527  _allowances */\n      0x02\n        /* \"CIC.sol\":6516:6533  _allowances[from] */\n      0x00\n        /* \"CIC.sol\":6528:6532  from */\n      dup7\n        /* \"CIC.sol\":6516:6533  _allowances[from] */\n      0xffffffffffffffffffffffffffffffffffffffff\n      and\n      0xffffffffffffffffffffffffffffffffffffffff\n      and\n      dup2\n      mstore\n      0x20\n      add\n      swap1\n      dup2\n      mstore\n      0x20\n      add\n      0x00\n      keccak256\n        /* \"CIC.sol\":6516:6545  _allowances[from][msg.sender] */\n      0x00\n        /* \"CIC.sol\":6534:6544  msg.sender */\n      caller\n        /* \"CIC.sol\":6516:6545  _allowances[from][msg.sender] */\n      0xffffffffffffffffffffffffffffffffffffffff\n      and\n      0xffffffffffffffffffffffffffffffffffffffff\n      and\n      dup2\n      mstore\n      0x20\n      add\n      swap1\n      dup2\n      mstore\n      0x20\n      add\n      0x00\n      keccak256\n      0x00\n        /* \"CIC.sol\":6516:6555  _allowances[from][msg.sender] -= amount */\n      dup3\n      dup3\n      sload\n      tag_74\n      swap2\n      swap1\n      tag_75\n      jump\t// in\n    tag_74:\n      swap3\n      pop\n      pop\n      dup2\n      swap1\n      sstore\n      pop\n        /* \"CIC.sol\":6575:6579  true */\n      0x01\n        /* \"CIC.sol\":6568:6579  return true */\n      swap1\n      pop\n        /* \"CIC.sol\":5968:6587  function transferFrom(address from, address to, uint256 amount) public returns (bool) {... */\n      swap4\n      swap3\n      pop\n      pop\n      pop\n      jump\t// out\n        /* \"CIC.sol\":592:626  uint8 public constant decimals = 6 */\n    tag_36:\n        /* \"CIC.sol\":625:626  6 */\n      0x06\n        /* \"CIC.sol\":592:626  uint8 public constant decimals = 6 */\n      dup2\n      jump\t// out\n        /* \"CIC.sol\":2591:2701  function balanceOf(address account) public view returns (uint256) {... */\n    tag_42:\n        /* \"CIC.sol\":2648:2655  uint256 */\n      0x00\n        /* \"CIC.sol\":2675:2684  _balances */\n      0x01\n        /* \"CIC.sol\":2675:2693  _balances[account] */\n      0x00\n        /* \"CIC.sol\":2685:2692  account */\n      dup4\n        /* \"CIC.sol\":2675:2693  _balances[account] */\n      0xffffffffffffffffffffffffffffffffffffffff\n      and\n      0xffffffffffffffffffffffffffffffffffffffff\n      and\n      dup2\n      mstore\n      0x20\n      add\n      swap1\n      dup2\n      mstore\n      0x20\n      add\n      0x00\n      keccak256\n      sload\n        /* \"CIC.sol\":2668:2693  return _balances[account] */\n      swap1\n      pop\n        /* \"CIC.sol\":2591:2701  function balanceOf(address account) public view returns (uint256) {... */\n      swap2\n      swap1\n      pop\n      jump\t// out\n        /* \"CIC.sol\":1199:1237  uint256 public constant TAX_RATE = 100 */\n    tag_45:\n        /* \"CIC.sol\":1234:1237  100 */\n      0x64\n        /* \"CIC.sol\":1199:1237  uint256 public constant TAX_RATE = 100 */\n      dup2\n      jump\t// out\n        /* \"CIC.sol\":1087:1117  address public immutable owner */\n    tag_48:\n      immutable(\"0x81e080ffc23e8b8d44dd829bc823229e92b893eb1d8f624419d3f5682eb97fc3\")\n      dup2\n      jump\t// out\n        /* \"CIC.sol\":490:527  string public constant symbol = \"CIC\" */\n    tag_52:\n      mload(0x40)\n      dup1\n      0x40\n      add\n      0x40\n      mstore\n      dup1\n      0x03\n      dup2\n      mstore\n      0x20\n      add\n      0x4349430000000000000000000000000000000000000000000000000000000000\n      dup2\n      mstore\n      pop\n      dup2\n      jump\t// out\n        /* \"CIC.sol\":1289:1336  uint256 public constant TAX_DENOMINATOR = 10000 */\n    tag_55:\n        /* \"CIC.sol\":1331:1336  10000 */\n      0x2710\n        /* \"CIC.sol\":1289:1336  uint256 public constant TAX_DENOMINATOR = 10000 */\n      dup2\n      jump\t// out\n        /* \"CIC.sol\":4976:5185  function transfer(address to, uint256 amount) public returns (bool) {... */\n    tag_59:\n        /* \"CIC.sol\":5038:5042  bool */\n      0x00\n        /* \"CIC.sol\":5122:5155  _transfer(msg.sender, to, amount) */\n      tag_78\n        /* \"CIC.sol\":5132:5142  msg.sender */\n      caller\n        /* \"CIC.sol\":5144:5146  to */\n      dup5\n        /* \"CIC.sol\":5148:5154  amount */\n      dup5\n        /* \"CIC.sol\":5122:5131  _transfer */\n      tag_73\n        /* \"CIC.sol\":5122:5155  _transfer(msg.sender, to, amount) */\n      jump\t// in\n    tag_78:\n        /* \"CIC.sol\":5173:5177  true */\n      0x01\n        /* \"CIC.sol\":5166:5177  return true */\n      swap1\n      pop\n        /* \"CIC.sol\":4976:5185  function transfer(address to, uint256 amount) public returns (bool) {... */\n      swap3\n      swap2\n      pop\n      pop\n      jump\t// out\n        /* \"CIC.sol\":2917:3053  function allowance(address _owner, address spender) public view returns (uint256) {... */\n    tag_64:\n        /* \"CIC.sol\":2990:2997  uint256 */\n      0x00\n        /* \"CIC.sol\":3017:3028  _allowances */\n      0x02\n        /* \"CIC.sol\":3017:3036  _allowances[_owner] */\n      0x00\n        /* \"CIC.sol\":3029:3035  _owner */\n      dup5\n        /* \"CIC.sol\":3017:3036  _allowances[_owner] */\n      0xffffffffffffffffffffffffffffffffffffffff\n      and\n      0xffffffffffffffffffffffffffffffffffffffff\n      and\n      dup2\n      mstore\n      0x20\n      add\n      swap1\n      dup2\n      mstore\n      0x20\n      add\n      0x00\n      keccak256\n        /* \"CIC.sol\":3017:3045  _allowances[_owner][spender] */\n      0x00\n        /* \"CIC.sol\":3037:3044  spender */\n      dup4\n        /* \"CIC.sol\":3017:3045  _allowances[_owner][spender] */\n      0xffffffffffffffffffffffffffffffffffffffff\n      and\n      0xffffffffffffffffffffffffffffffffffffffff\n      and\n      dup2\n      mstore\n      0x20\n      add\n      swap1\n      dup2\n      mstore\n      0x20\n      add\n      0x00\n      keccak256\n      sload\n        /* \"CIC.sol\":3010:3045  return _allowances[_owner][spender] */\n      swap1\n      pop\n        /* \"CIC.sol\":2917:3053  function allowance(address _owner, address spender) public view returns (uint256) {... */\n      swap3\n      swap2\n      pop\n      pop\n      jump\t// out\n        /* \"CIC.sol\":3342:4711  function _transfer(address from, address to, uint256 amount) private {... */\n    tag_73:\n        /* \"CIC.sol\":3510:3511  0 */\n      0x00\n        /* \"CIC.sol\":3494:3512  from != address(0) */\n      0xffffffffffffffffffffffffffffffffffffffff\n      and\n        /* \"CIC.sol\":3494:3498  from */\n      dup4\n        /* \"CIC.sol\":3494:3512  from != address(0) */\n      0xffffffffffffffffffffffffffffffffffffffff\n      and\n      sub\n        /* \"CIC.sol\":3486:3554  require(from != address(0), \"ERC20: transfer from the zero address\") */\n      tag_81\n      jumpi\n      mload(0x40)\n      0x08c379a000000000000000000000000000000000000000000000000000000000\n      dup2\n      mstore\n      0x04\n      add\n      tag_82\n      swap1\n      tag_83\n      jump\t// in\n    tag_82:\n      mload(0x40)\n      dup1\n      swap2\n      sub\n      swap1\n      revert\n    tag_81:\n        /* \"CIC.sol\":3587:3588  0 */\n      0x00\n        /* \"CIC.sol\":3573:3589  to != address(0) */\n      0xffffffffffffffffffffffffffffffffffffffff\n      and\n        /* \"CIC.sol\":3573:3575  to */\n      dup3\n        /* \"CIC.sol\":3573:3589  to != address(0) */\n      0xffffffffffffffffffffffffffffffffffffffff\n      and\n      sub\n        /* \"CIC.sol\":3565:3629  require(to != address(0), \"ERC20: transfer to the zero address\") */\n      tag_84\n      jumpi\n      mload(0x40)\n      0x08c379a000000000000000000000000000000000000000000000000000000000\n      dup2\n      mstore\n      0x04\n      add\n      tag_85\n      swap1\n      tag_86\n      jump\t// in\n    tag_85:\n      mload(0x40)\n      dup1\n      swap2\n      sub\n      swap1\n      revert\n    tag_84:\n        /* \"CIC.sol\":3709:3715  amount */\n      dup1\n        /* \"CIC.sol\":3690:3699  _balances */\n      0x01\n        /* \"CIC.sol\":3690:3705  _balances[from] */\n      0x00\n        /* \"CIC.sol\":3700:3704  from */\n      dup6\n        /* \"CIC.sol\":3690:3705  _balances[from] */\n      0xffffffffffffffffffffffffffffffffffffffff\n      and\n      0xffffffffffffffffffffffffffffffffffffffff\n      and\n      dup2\n      mstore\n      0x20\n      add\n      swap1\n      dup2\n      mstore\n      0x20\n      add\n      0x00\n      keccak256\n      sload\n        /* \"CIC.sol\":3690:3715  _balances[from] >= amount */\n      lt\n      iszero\n        /* \"CIC.sol\":3682:3758  require(_balances[from] >= amount, \"ERC20: transfer amount exceeds balance\") */\n      tag_87\n      jumpi\n      mload(0x40)\n      0x08c379a000000000000000000000000000000000000000000000000000000000\n      dup2\n      mstore\n      0x04\n      add\n      tag_88\n      swap1\n      tag_89\n      jump\t// in\n    tag_88:\n      mload(0x40)\n      dup1\n      swap2\n      sub\n      swap1\n      revert\n    tag_87:\n        /* \"CIC.sol\":3871:3888  uint256 taxAmount */\n      0x00\n        /* \"CIC.sol\":1331:1336  10000 */\n      0x2710\n        /* \"CIC.sol\":1234:1237  100 */\n      0x64\n        /* \"CIC.sol\":3891:3897  amount */\n      dup4\n        /* \"CIC.sol\":3891:3908  amount * TAX_RATE */\n      tag_90\n      swap2\n      swap1\n      tag_91\n      jump\t// in\n    tag_90:\n        /* \"CIC.sol\":3891:3926  amount * TAX_RATE / TAX_DENOMINATOR */\n      tag_92\n      swap2\n      swap1\n      tag_93\n      jump\t// in\n    tag_92:\n        /* \"CIC.sol\":3871:3926  uint256 taxAmount = amount * TAX_RATE / TAX_DENOMINATOR */\n      swap1\n      pop\n        /* \"CIC.sol\":3977:3999  uint256 transferAmount */\n      0x00\n        /* \"CIC.sol\":4011:4020  taxAmount */\n      dup2\n        /* \"CIC.sol\":4002:4008  amount */\n      dup4\n        /* \"CIC.sol\":4002:4020  amount - taxAmount */\n      tag_94\n      swap2\n      swap1\n      tag_75\n      jump\t// in\n    tag_94:\n        /* \"CIC.sol\":3977:4020  uint256 transferAmount = amount - taxAmount */\n      swap1\n      pop\n        /* \"CIC.sol\":4155:4161  amount */\n      dup3\n        /* \"CIC.sol\":4136:4145  _balances */\n      0x01\n        /* \"CIC.sol\":4136:4151  _balances[from] */\n      0x00\n        /* \"CIC.sol\":4146:4150  from */\n      dup8\n        /* \"CIC.sol\":4136:4151  _balances[from] */\n      0xffffffffffffffffffffffffffffffffffffffff\n      and\n      0xffffffffffffffffffffffffffffffffffffffff\n      and\n      dup2\n      mstore\n      0x20\n      add\n      swap1\n      dup2\n      mstore\n      0x20\n      add\n      0x00\n      keccak256\n      0x00\n        /* \"CIC.sol\":4136:4161  _balances[from] -= amount */\n      dup3\n      dup3\n      sload\n      tag_95\n      swap2\n      swap1\n      tag_75\n      jump\t// in\n    tag_95:\n      swap3\n      pop\n      pop\n      dup2\n      swap1\n      sstore\n      pop\n        /* \"CIC.sol\":4372:4373  0 */\n      0x00\n        /* \"CIC.sol\":4360:4369  taxAmount */\n      dup3\n        /* \"CIC.sol\":4360:4373  taxAmount > 0 */\n      gt\n        /* \"CIC.sol\":4356:4524  if (taxAmount > 0) {... */\n      iszero\n      tag_96\n      jumpi\n        /* \"CIC.sol\":4410:4419  taxAmount */\n      dup2\n        /* \"CIC.sol\":4390:4399  _balances */\n      0x01\n        /* \"CIC.sol\":4390:4406  _balances[owner] */\n      0x00\n        /* \"CIC.sol\":4400:4405  owner */\n      immutable(\"0x81e080ffc23e8b8d44dd829bc823229e92b893eb1d8f624419d3f5682eb97fc3\")\n        /* \"CIC.sol\":4390:4406  _balances[owner] */\n      0xffffffffffffffffffffffffffffffffffffffff\n      and\n      0xffffffffffffffffffffffffffffffffffffffff\n      and\n      dup2\n      mstore\n      0x20\n      add\n      swap1\n      dup2\n      mstore\n      0x20\n      add\n      0x00\n      keccak256\n      0x00\n        /* \"CIC.sol\":4390:4419  _balances[owner] += taxAmount */\n      dup3\n      dup3\n      sload\n      tag_97\n      swap2\n      swap1\n      tag_98\n      jump\t// in\n    tag_97:\n      swap3\n      pop\n      pop\n      dup2\n      swap1\n      sstore\n      pop\n        /* \"CIC.sol\":4495:4500  owner */\n      immutable(\"0x81e080ffc23e8b8d44dd829bc823229e92b893eb1d8f624419d3f5682eb97fc3\")\n        /* \"CIC.sol\":4480:4512  Transfer(from, owner, taxAmount) */\n      0xffffffffffffffffffffffffffffffffffffffff\n      and\n        /* \"CIC.sol\":4489:4493  from */\n      dup6\n        /* \"CIC.sol\":4480:4512  Transfer(from, owner, taxAmount) */\n      0xffffffffffffffffffffffffffffffffffffffff\n      and\n      0xddf252ad1be2c89b69c2b068fc378daa952ba7f163c4a11628f55a4df523b3ef\n        /* \"CIC.sol\":4502:4511  taxAmount */\n      dup5\n        /* \"CIC.sol\":4480:4512  Transfer(from, owner, taxAmount) */\n      mload(0x40)\n      tag_99\n      swap2\n      swap1\n      tag_29\n      jump\t// in\n    tag_99:\n      mload(0x40)\n      dup1\n      swap2\n      sub\n      swap1\n      log3\n        /* \"CIC.sol\":4356:4524  if (taxAmount > 0) {... */\n    tag_96:\n        /* \"CIC.sol\":4602:4616  transferAmount */\n      dup1\n        /* \"CIC.sol\":4585:4594  _balances */\n      0x01\n        /* \"CIC.sol\":4585:4598  _balances[to] */\n      0x00\n        /* \"CIC.sol\":4595:4597  to */\n      dup7\n        /* \"CIC.sol\":4585:4598  _balances[to] */\n      0xffffffffffffffffffffffffffffffffffffffff\n      and\n      0xffffffffffffffffffffffffffffffffffffffff\n      and\n      dup2\n      mstore\n      0x20\n      add\n      swap1\n      dup2\n      mstore\n      0x20\n      add\n      0x00\n      keccak256\n      0x00\n        /* \"CIC.sol\":4585:4616  _balances[to] += transferAmount */\n      dup3\n      dup3\n      sload\n      tag_100\n      swap2\n      swap1\n      tag_98\n      jump\t// in\n    tag_100:\n      swap3\n      pop\n      pop\n      dup2\n      swap1\n      sstore\n      pop\n        /* \"CIC.sol\":4684:4686  to */\n      dup4\n        /* \"CIC.sol\":4669:4703  Transfer(from, to, transferAmount) */\n      0xffffffffffffffffffffffffffffffffffffffff\n      and\n        /* \"CIC.sol\":4678:4682  from */\n      dup6\n        /* \"CIC.sol\":4669:4703  Transfer(from, to, transferAmount) */\n      0xffffffffffffffffffffffffffffffffffffffff\n      and\n      0xddf252ad1be2c89b69c2b068fc378daa952ba7f163c4a11628f55a4df523b3ef\n        /* \"CIC.sol\":4688:4702  transferAmount */\n      dup4\n        /* \"CIC.sol\":4669:4703  Transfer(from, to, transferAmount) */\n      mload(0x40)\n      tag_101\n      swap2\n      swap1\n      tag_29\n      jump\t// in\n    tag_101:\n      mload(0x40)\n      dup1\n      swap2\n      sub\n      swap1\n      log3\n        /* \"CIC.sol\":3411:4711  {... */\n      pop\n      pop\n        /* \"CIC.sol\":3342:4711  function _transfer(address from, address to, uint256 amount) private {... */\n      pop\n      pop\n      pop\n      jump\t// out\n        /* \"#utility.yul\":7:106   */\n    tag_102:\n        /* \"#utility.yul\":59:65   */\n      0x00\n        /* \"#utility.yul\":93:98   */\n      dup2\n        /* \"#utility.yul\":87:99   */\n      mload\n        /* \"#utility.yul\":77:99   */\n      swap1\n      pop\n        /* \"#utility.yul\":7:106   */\n      swap2\n      swap1\n      pop\n      jump\t// out\n        /* \"#utility.yul\":112:281   */\n    tag_103:\n        /* \"#utility.yul\":196:207   */\n      0x00\n        /* \"#utility.yul\":230:236   */\n      dup3\n        /* \"#utility.yul\":225:228   */\n      dup3\n        /* \"#utility.yul\":218:237   */\n      mstore\n        /* \"#utility.yul\":270:274   */\n      0x20\n        /* \"#utility.yul\":265:268   */\n      dup3\n        /* \"#utility.yul\":261:275   */\n      add\n        /* \"#utility.yul\":246:275   */\n      swap1\n      pop\n        /* \"#utility.yul\":112:281   */\n      swap3\n      swap2\n      pop\n      pop\n      jump\t// out\n        /* \"#utility.yul\":287:533   */\n    tag_104:\n        /* \"#utility.yul\":368:369   */\n      0x00\n        /* \"#utility.yul\":378:491   */\n    tag_137:\n        /* \"#utility.yul\":392:398   */\n      dup4\n        /* \"#utility.yul\":389:390   */\n      dup2\n        /* \"#utility.yul\":386:399   */\n      lt\n        /* \"#utility.yul\":378:491   */\n      iszero\n      tag_139\n      jumpi\n        /* \"#utility.yul\":477:478   */\n      dup1\n        /* \"#utility.yul\":472:475   */\n      dup3\n        /* \"#utility.yul\":468:479   */\n      add\n        /* \"#utility.yul\":462:480   */\n      mload\n        /* \"#utility.yul\":458:459   */\n      dup2\n        /* \"#utility.yul\":453:456   */\n      dup5\n        /* \"#utility.yul\":449:460   */\n      add\n        /* \"#utility.yul\":442:481   */\n      mstore\n        /* \"#utility.yul\":414:416   */\n      0x20\n        /* \"#utility.yul\":411:412   */\n      dup2\n        /* \"#utility.yul\":407:417   */\n      add\n        /* \"#utility.yul\":402:417   */\n      swap1\n      pop\n        /* \"#utility.yul\":378:491   */\n      jump(tag_137)\n    tag_139:\n        /* \"#utility.yul\":525:526   */\n      0x00\n        /* \"#utility.yul\":516:522   */\n      dup5\n        /* \"#utility.yul\":511:514   */\n      dup5\n        /* \"#utility.yul\":507:523   */\n      add\n        /* \"#utility.yul\":500:527   */\n      mstore\n        /* \"#utility.yul\":349:533   */\n      pop\n        /* \"#utility.yul\":287:533   */\n      pop\n      pop\n      pop\n      jump\t// out\n        /* \"#utility.yul\":539:641   */\n    tag_105:\n        /* \"#utility.yul\":580:586   */\n      0x00\n        /* \"#utility.yul\":631:633   */\n      0x1f\n        /* \"#utility.yul\":627:634   */\n      not\n        /* \"#utility.yul\":622:624   */\n      0x1f\n        /* \"#utility.yul\":615:620   */\n      dup4\n        /* \"#utility.yul\":611:625   */\n      add\n        /* \"#utility.yul\":607:635   */\n      and\n        /* \"#utility.yul\":597:635   */\n      swap1\n      pop\n        /* \"#utility.yul\":539:641   */\n      swap2\n      swap1\n      pop\n      jump\t// out\n        /* \"#utility.yul\":647:1024   */\n    tag_106:\n        /* \"#utility.yul\":735:738   */\n      0x00\n        /* \"#utility.yul\":763:802   */\n      tag_142\n        /* \"#utility.yul\":796:801   */\n      dup3\n        /* \"#utility.yul\":763:802   */\n      tag_102\n      jump\t// in\n    tag_142:\n        /* \"#utility.yul\":818:889   */\n      tag_143\n        /* \"#utility.yul\":882:888   */\n      dup2\n        /* \"#utility.yul\":877:880   */\n      dup6\n        /* \"#utility.yul\":818:889   */\n      tag_103\n      jump\t// in\n    tag_143:\n        /* \"#utility.yul\":811:889   */\n      swap4\n      pop\n        /* \"#utility.yul\":898:963   */\n      tag_144\n        /* \"#utility.yul\":956:962   */\n      dup2\n        /* \"#utility.yul\":951:954   */\n      dup6\n        /* \"#utility.yul\":944:948   */\n      0x20\n        /* \"#utility.yul\":937:942   */\n      dup7\n        /* \"#utility.yul\":933:949   */\n      add\n        /* \"#utility.yul\":898:963   */\n      tag_104\n      jump\t// in\n    tag_144:\n        /* \"#utility.yul\":988:1017   */\n      tag_145\n        /* \"#utility.yul\":1010:1016   */\n      dup2\n        /* \"#utility.yul\":988:1017   */\n      tag_105\n      jump\t// in\n    tag_145:\n        /* \"#utility.yul\":983:986   */\n      dup5\n        /* \"#utility.yul\":979:1018   */\n      add\n        /* \"#utility.yul\":972:1018   */\n      swap2\n      pop\n        /* \"#utility.yul\":739:1024   */\n      pop\n        /* \"#utility.yul\":647:1024   */\n      swap3\n      swap2\n      pop\n      pop\n      jump\t// out\n        /* \"#utility.yul\":1030:1343   */\n    tag_19:\n        /* \"#utility.yul\":1143:1147   */\n      0x00\n        /* \"#utility.yul\":1181:1183   */\n      0x20\n        /* \"#utility.yul\":1170:1179   */\n      dup3\n        /* \"#utility.yul\":1166:1184   */\n      add\n        /* \"#utility.yul\":1158:1184   */\n      swap1\n      pop\n        /* \"#utility.yul\":1230:1239   */\n      dup2\n        /* \"#utility.yul\":1224:1228   */\n      dup2\n        /* \"#utility.yul\":1220:1240   */\n      sub\n        /* \"#utility.yul\":1216:1217   */\n      0x00\n        /* \"#utility.yul\":1205:1214   */\n      dup4\n        /* \"#utility.yul\":1201:1218   */\n      add\n        /* \"#utility.yul\":1194:1241   */\n      mstore\n        /* \"#utility.yul\":1258:1336   */\n      tag_147\n        /* \"#utility.yul\":1331:1335   */\n      dup2\n        /* \"#utility.yul\":1322:1328   */\n      dup5\n        /* \"#utility.yul\":1258:1336   */\n      tag_106\n      jump\t// in\n    tag_147:\n        /* \"#utility.yul\":1250:1336   */\n      swap1\n      pop\n        /* \"#utility.yul\":1030:1343   */\n      swap3\n      swap2\n      pop\n      pop\n      jump\t// out\n        /* \"#utility.yul\":1430:1547   */\n    tag_108:\n        /* \"#utility.yul\":1539:1540   */\n      0x00\n        /* \"#utility.yul\":1536:1537   */\n      dup1\n        /* \"#utility.yul\":1529:1541   */\n      revert\n        /* \"#utility.yul\":1676:1802   */\n    tag_110:\n        /* \"#utility.yul\":1713:1720   */\n      0x00\n        /* \"#utility.yul\":1753:1795   */\n      0xffffffffffffffffffffffffffffffffffffffff\n        /* \"#utility.yul\":1746:1751   */\n      dup3\n        /* \"#utility.yul\":1742:1796   */\n      and\n        /* \"#utility.yul\":1731:1796   */\n      swap1\n      pop\n        /* \"#utility.yul\":1676:1802   */\n      swap2\n      swap1\n      pop\n      jump\t// out\n        /* \"#utility.yul\":1808:1904   */\n    tag_111:\n        /* \"#utility.yul\":1845:1852   */\n      0x00\n        /* \"#utility.yul\":1874:1898   */\n      tag_153\n        /* \"#utility.yul\":1892:1897   */\n      dup3\n        /* \"#utility.yul\":1874:1898   */\n      tag_110\n      jump\t// in\n    tag_153:\n        /* \"#utility.yul\":1863:1898   */\n      swap1\n      pop\n        /* \"#utility.yul\":1808:1904   */\n      swap2\n      swap1\n      pop\n      jump\t// out\n        /* \"#utility.yul\":1910:2032   */\n    tag_112:\n        /* \"#utility.yul\":1983:2007   */\n      tag_155\n        /* \"#utility.yul\":2001:2006   */\n      dup2\n        /* \"#utility.yul\":1983:2007   */\n      tag_111\n      jump\t// in\n    tag_155:\n        /* \"#utility.yul\":1976:1981   */\n      dup2\n        /* \"#utility.yul\":1973:2008   */\n      eq\n        /* \"#utility.yul\":1963:2026   */\n      tag_156\n      jumpi\n        /* \"#utility.yul\":2022:2023   */\n      0x00\n        /* \"#utility.yul\":2019:2020   */\n      dup1\n        /* \"#utility.yul\":2012:2024   */\n      revert\n        /* \"#utility.yul\":1963:2026   */\n    tag_156:\n        /* \"#utility.yul\":1910:2032   */\n      pop\n      jump\t// out\n        /* \"#utility.yul\":2038:2177   */\n    tag_113:\n        /* \"#utility.yul\":2084:2089   */\n      0x00\n        /* \"#utility.yul\":2122:2128   */\n      dup2\n        /* \"#utility.yul\":2109:2129   */\n      calldataload\n        /* \"#utility.yul\":2100:2129   */\n      swap1\n      pop\n        /* \"#utility.yul\":2138:2171   */\n      tag_158\n        /* \"#utility.yul\":2165:2170   */\n      dup2\n        /* \"#utility.yul\":2138:2171   */\n      tag_112\n      jump\t// in\n    tag_158:\n        /* \"#utility.yul\":2038:2177   */\n      swap3\n      swap2\n      pop\n      pop\n      jump\t// out\n        /* \"#utility.yul\":2183:2260   */\n    tag_114:\n        /* \"#utility.yul\":2220:2227   */\n      0x00\n        /* \"#utility.yul\":2249:2254   */\n      dup2\n        /* \"#utility.yul\":2238:2254   */\n      swap1\n      pop\n        /* \"#utility.yul\":2183:2260   */\n      swap2\n      swap1\n      pop\n      jump\t// out\n        /* \"#utility.yul\":2266:2388   */\n    tag_115:\n        /* \"#utility.yul\":2339:2363   */\n      tag_161\n        /* \"#utility.yul\":2357:2362   */\n      dup2\n        /* \"#utility.yul\":2339:2363   */\n      tag_114\n      jump\t// in\n    tag_161:\n        /* \"#utility.yul\":2332:2337   */\n      dup2\n        /* \"#utility.yul\":2329:2364   */\n      eq\n        /* \"#utility.yul\":2319:2382   */\n      tag_162\n      jumpi\n        /* \"#utility.yul\":2378:2379   */\n      0x00\n        /* \"#utility.yul\":2375:2376   */\n      dup1\n        /* \"#utility.yul\":2368:2380   */\n      revert\n        /* \"#utility.yul\":2319:2382   */\n    tag_162:\n        /* \"#utility.yul\":2266:2388   */\n      pop\n      jump\t// out\n        /* \"#utility.yul\":2394:2533   */\n    tag_116:\n        /* \"#utility.yul\":2440:2445   */\n      0x00\n        /* \"#utility.yul\":2478:2484   */\n      dup2\n        /* \"#utility.yul\":2465:2485   */\n      calldataload\n        /* \"#utility.yul\":2456:2485   */\n      swap1\n      pop\n        /* \"#utility.yul\":2494:2527   */\n      tag_164\n        /* \"#utility.yul\":2521:2526   */\n      dup2\n        /* \"#utility.yul\":2494:2527   */\n      tag_115\n      jump\t// in\n    tag_164:\n        /* \"#utility.yul\":2394:2533   */\n      swap3\n      swap2\n      pop\n      pop\n      jump\t// out\n        /* \"#utility.yul\":2539:3013   */\n    tag_22:\n        /* \"#utility.yul\":2607:2613   */\n      0x00\n        /* \"#utility.yul\":2615:2621   */\n      dup1\n        /* \"#utility.yul\":2664:2666   */\n      0x40\n        /* \"#utility.yul\":2652:2661   */\n      dup4\n        /* \"#utility.yul\":2643:2650   */\n      dup6\n        /* \"#utility.yul\":2639:2662   */\n      sub\n        /* \"#utility.yul\":2635:2667   */\n      slt\n        /* \"#utility.yul\":2632:2751   */\n      iszero\n      tag_166\n      jumpi\n        /* \"#utility.yul\":2670:2749   */\n      tag_167\n      tag_108\n      jump\t// in\n    tag_167:\n        /* \"#utility.yul\":2632:2751   */\n    tag_166:\n        /* \"#utility.yul\":2790:2791   */\n      0x00\n        /* \"#utility.yul\":2815:2868   */\n      tag_168\n        /* \"#utility.yul\":2860:2867   */\n      dup6\n        /* \"#utility.yul\":2851:2857   */\n      dup3\n        /* \"#utility.yul\":2840:2849   */\n      dup7\n        /* \"#utility.yul\":2836:2858   */\n      add\n        /* \"#utility.yul\":2815:2868   */\n      tag_113\n      jump\t// in\n    tag_168:\n        /* \"#utility.yul\":2805:2868   */\n      swap3\n      pop\n        /* \"#utility.yul\":2761:2878   */\n      pop\n        /* \"#utility.yul\":2917:2919   */\n      0x20\n        /* \"#utility.yul\":2943:2996   */\n      tag_169\n        /* \"#utility.yul\":2988:2995   */\n      dup6\n        /* \"#utility.yul\":2979:2985   */\n      dup3\n        /* \"#utility.yul\":2968:2977   */\n      dup7\n        /* \"#utility.yul\":2964:2986   */\n      add\n        /* \"#utility.yul\":2943:2996   */\n      tag_116\n      jump\t// in\n    tag_169:\n        /* \"#utility.yul\":2933:2996   */\n      swap2\n      pop\n        /* \"#utility.yul\":2888:3006   */\n      pop\n        /* \"#utility.yul\":2539:3013   */\n      swap3\n      pop\n      swap3\n      swap1\n      pop\n      jump\t// out\n        /* \"#utility.yul\":3019:3109   */\n    tag_117:\n        /* \"#utility.yul\":3053:3060   */\n      0x00\n        /* \"#utility.yul\":3096:3101   */\n      dup2\n        /* \"#utility.yul\":3089:3102   */\n      iszero\n        /* \"#utility.yul\":3082:3103   */\n      iszero\n        /* \"#utility.yul\":3071:3103   */\n      swap1\n      pop\n        /* \"#utility.yul\":3019:3109   */\n      swap2\n      swap1\n      pop\n      jump\t// out\n        /* \"#utility.yul\":3115:3224   */\n    tag_118:\n        /* \"#utility.yul\":3196:3217   */\n      tag_172\n        /* \"#utility.yul\":3211:3216   */\n      dup2\n        /* \"#utility.yul\":3196:3217   */\n      tag_117\n      jump\t// in\n    tag_172:\n        /* \"#utility.yul\":3191:3194   */\n      dup3\n        /* \"#utility.yul\":3184:3218   */\n      mstore\n        /* \"#utility.yul\":3115:3224   */\n      pop\n      pop\n      jump\t// out\n        /* \"#utility.yul\":3230:3440   */\n    tag_25:\n        /* \"#utility.yul\":3317:3321   */\n      0x00\n        /* \"#utility.yul\":3355:3357   */\n      0x20\n        /* \"#utility.yul\":3344:3353   */\n      dup3\n        /* \"#utility.yul\":3340:3358   */\n      add\n        /* \"#utility.yul\":3332:3358   */\n      swap1\n      pop\n        /* \"#utility.yul\":3368:3433   */\n      tag_174\n        /* \"#utility.yul\":3430:3431   */\n      0x00\n        /* \"#utility.yul\":3419:3428   */\n      dup4\n        /* \"#utility.yul\":3415:3432   */\n      add\n        /* \"#utility.yul\":3406:3412   */\n      dup5\n        /* \"#utility.yul\":3368:3433   */\n      tag_118\n      jump\t// in\n    tag_174:\n        /* \"#utility.yul\":3230:3440   */\n      swap3\n      swap2\n      pop\n      pop\n      jump\t// out\n        /* \"#utility.yul\":3446:3564   */\n    tag_119:\n        /* \"#utility.yul\":3533:3557   */\n      tag_176\n        /* \"#utility.yul\":3551:3556   */\n      dup2\n        /* \"#utility.yul\":3533:3557   */\n      tag_114\n      jump\t// in\n    tag_176:\n        /* \"#utility.yul\":3528:3531   */\n      dup3\n        /* \"#utility.yul\":3521:3558   */\n      mstore\n        /* \"#utility.yul\":3446:3564   */\n      pop\n      pop\n      jump\t// out\n        /* \"#utility.yul\":3570:3792   */\n    tag_29:\n        /* \"#utility.yul\":3663:3667   */\n      0x00\n        /* \"#utility.yul\":3701:3703   */\n      0x20\n        /* \"#utility.yul\":3690:3699   */\n      dup3\n        /* \"#utility.yul\":3686:3704   */\n      add\n        /* \"#utility.yul\":3678:3704   */\n      swap1\n      pop\n        /* \"#utility.yul\":3714:3785   */\n      tag_178\n        /* \"#utility.yul\":3782:3783   */\n      0x00\n        /* \"#utility.yul\":3771:3780   */\n      dup4\n        /* \"#utility.yul\":3767:3784   */\n      add\n        /* \"#utility.yul\":3758:3764   */\n      dup5\n        /* \"#utility.yul\":3714:3785   */\n      tag_119\n      jump\t// in\n    tag_178:\n        /* \"#utility.yul\":3570:3792   */\n      swap3\n      swap2\n      pop\n      pop\n      jump\t// out\n        /* \"#utility.yul\":3798:4417   */\n    tag_32:\n        /* \"#utility.yul\":3875:3881   */\n      0x00\n        /* \"#utility.yul\":3883:3889   */\n      dup1\n        /* \"#utility.yul\":3891:3897   */\n      0x00\n        /* \"#utility.yul\":3940:3942   */\n      0x60\n        /* \"#utility.yul\":3928:3937   */\n      dup5\n        /* \"#utility.yul\":3919:3926   */\n      dup7\n        /* \"#utility.yul\":3915:3938   */\n      sub\n        /* \"#utility.yul\":3911:3943   */\n      slt\n        /* \"#utility.yul\":3908:4027   */\n      iszero\n      tag_180\n      jumpi\n        /* \"#utility.yul\":3946:4025   */\n      tag_181\n      tag_108\n      jump\t// in\n    tag_181:\n        /* \"#utility.yul\":3908:4027   */\n    tag_180:\n        /* \"#utility.yul\":4066:4067   */\n      0x00\n        /* \"#utility.yul\":4091:4144   */\n      tag_182\n        /* \"#utility.yul\":4136:4143   */\n      dup7\n        /* \"#utility.yul\":4127:4133   */\n      dup3\n        /* \"#utility.yul\":4116:4125   */\n      dup8\n        /* \"#utility.yul\":4112:4134   */\n      add\n        /* \"#utility.yul\":4091:4144   */\n      tag_113\n      jump\t// in\n    tag_182:\n        /* \"#utility.yul\":4081:4144   */\n      swap4\n      pop\n        /* \"#utility.yul\":4037:4154   */\n      pop\n        /* \"#utility.yul\":4193:4195   */\n      0x20\n        /* \"#utility.yul\":4219:4272   */\n      tag_183\n        /* \"#utility.yul\":4264:4271   */\n      dup7\n        /* \"#utility.yul\":4255:4261   */\n      dup3\n        /* \"#utility.yul\":4244:4253   */\n      dup8\n        /* \"#utility.yul\":4240:4262   */\n      add\n        /* \"#utility.yul\":4219:4272   */\n      tag_113\n      jump\t// in\n    tag_183:\n        /* \"#utility.yul\":4209:4272   */\n      swap3\n      pop\n        /* \"#utility.yul\":4164:4282   */\n      pop\n        /* \"#utility.yul\":4321:4323   */\n      0x40\n        /* \"#utility.yul\":4347:4400   */\n      tag_184\n        /* \"#utility.yul\":4392:4399   */\n      dup7\n        /* \"#utility.yul\":4383:4389   */\n      dup3\n        /* \"#utility.yul\":4372:4381   */\n      dup8\n        /* \"#utility.yul\":4368:4390   */\n      add\n        /* \"#utility.yul\":4347:4400   */\n      tag_116\n      jump\t// in\n    tag_184:\n        /* \"#utility.yul\":4337:4400   */\n      swap2\n      pop\n        /* \"#utility.yul\":4292:4410   */\n      pop\n        /* \"#utility.yul\":3798:4417   */\n      swap3\n      pop\n      swap3\n      pop\n      swap3\n      jump\t// out\n        /* \"#utility.yul\":4423:4509   */\n    tag_120:\n        /* \"#utility.yul\":4458:4465   */\n      0x00\n        /* \"#utility.yul\":4498:4502   */\n      0xff\n        /* \"#utility.yul\":4491:4496   */\n      dup3\n        /* \"#utility.yul\":4487:4503   */\n      and\n        /* \"#utility.yul\":4476:4503   */\n      swap1\n      pop\n        /* \"#utility.yul\":4423:4509   */\n      swap2\n      swap1\n      pop\n      jump\t// out\n        /* \"#utility.yul\":4515:4627   */\n    tag_121:\n        /* \"#utility.yul\":4598:4620   */\n      tag_187\n        /* \"#utility.yul\":4614:4619   */\n      dup2\n        /* \"#utility.yul\":4598:4620   */\n      tag_120\n      jump\t// in\n    tag_187:\n        /* \"#utility.yul\":4593:4596   */\n      dup3\n        /* \"#utility.yul\":4586:4621   */\n      mstore\n        /* \"#utility.yul\":4515:4627   */\n      pop\n      pop\n      jump\t// out\n        /* \"#utility.yul\":4633:4847   */\n    tag_38:\n        /* \"#utility.yul\":4722:4726   */\n      0x00\n        /* \"#utility.yul\":4760:4762   */\n      0x20\n        /* \"#utility.yul\":4749:4758   */\n      dup3\n        /* \"#utility.yul\":4745:4763   */\n      add\n        /* \"#utility.yul\":4737:4763   */\n      swap1\n      pop\n        /* \"#utility.yul\":4773:4840   */\n      tag_189\n        /* \"#utility.yul\":4837:4838   */\n      0x00\n        /* \"#utility.yul\":4826:4835   */\n      dup4\n        /* \"#utility.yul\":4822:4839   */\n      add\n        /* \"#utility.yul\":4813:4819   */\n      dup5\n        /* \"#utility.yul\":4773:4840   */\n      tag_121\n      jump\t// in\n    tag_189:\n        /* \"#utility.yul\":4633:4847   */\n      swap3\n      swap2\n      pop\n      pop\n      jump\t// out\n        /* \"#utility.yul\":4853:5182   */\n    tag_41:\n        /* \"#utility.yul\":4912:4918   */\n      0x00\n        /* \"#utility.yul\":4961:4963   */\n      0x20\n        /* \"#utility.yul\":4949:4958   */\n      dup3\n        /* \"#utility.yul\":4940:4947   */\n      dup5\n        /* \"#utility.yul\":4936:4959   */\n      sub\n        /* \"#utility.yul\":4932:4964   */\n      slt\n        /* \"#utility.yul\":4929:5048   */\n      iszero\n      tag_191\n      jumpi\n        /* \"#utility.yul\":4967:5046   */\n      tag_192\n      tag_108\n      jump\t// in\n    tag_192:\n        /* \"#utility.yul\":4929:5048   */\n    tag_191:\n        /* \"#utility.yul\":5087:5088   */\n      0x00\n        /* \"#utility.yul\":5112:5165   */\n      tag_193\n        /* \"#utility.yul\":5157:5164   */\n      dup5\n        /* \"#utility.yul\":5148:5154   */\n      dup3\n        /* \"#utility.yul\":5137:5146   */\n      dup6\n        /* \"#utility.yul\":5133:5155   */\n      add\n        /* \"#utility.yul\":5112:5165   */\n      tag_113\n      jump\t// in\n    tag_193:\n        /* \"#utility.yul\":5102:5165   */\n      swap2\n      pop\n        /* \"#utility.yul\":5058:5175   */\n      pop\n        /* \"#utility.yul\":4853:5182   */\n      swap3\n      swap2\n      pop\n      pop\n      jump\t// out\n        /* \"#utility.yul\":5188:5306   */\n    tag_122:\n        /* \"#utility.yul\":5275:5299   */\n      tag_195\n        /* \"#utility.yul\":5293:5298   */\n      dup2\n        /* \"#utility.yul\":5275:5299   */\n      tag_111\n      jump\t// in\n    tag_195:\n        /* \"#utility.yul\":5270:5273   */\n      dup3\n        /* \"#utility.yul\":5263:5300   */\n      mstore\n        /* \"#utility.yul\":5188:5306   */\n      pop\n      pop\n      jump\t// out\n        /* \"#utility.yul\":5312:5534   */\n    tag_50:\n        /* \"#utility.yul\":5405:5409   */\n      0x00\n        /* \"#utility.yul\":5443:5445   */\n      0x20\n        /* \"#utility.yul\":5432:5441   */\n      dup3\n        /* \"#utility.yul\":5428:5446   */\n      add\n        /* \"#utility.yul\":5420:5446   */\n      swap1\n      pop\n        /* \"#utility.yul\":5456:5527   */\n      tag_197\n        /* \"#utility.yul\":5524:5525   */\n      0x00\n        /* \"#utility.yul\":5513:5522   */\n      dup4\n        /* \"#utility.yul\":5509:5526   */\n      add\n        /* \"#utility.yul\":5500:5506   */\n      dup5\n        /* \"#utility.yul\":5456:5527   */\n      tag_122\n      jump\t// in\n    tag_197:\n        /* \"#utility.yul\":5312:5534   */\n      swap3\n      swap2\n      pop\n      pop\n      jump\t// out\n        /* \"#utility.yul\":5540:6014   */\n    tag_63:\n        /* \"#utility.yul\":5608:5614   */\n      0x00\n        /* \"#utility.yul\":5616:5622   */\n      dup1\n        /* \"#utility.yul\":5665:5667   */\n      0x40\n        /* \"#utility.yul\":5653:5662   */\n      dup4\n        /* \"#utility.yul\":5644:5651   */\n      dup6\n        /* \"#utility.yul\":5640:5663   */\n      sub\n        /* \"#utility.yul\":5636:5668   */\n      slt\n        /* \"#utility.yul\":5633:5752   */\n      iszero\n      tag_199\n      jumpi\n        /* \"#utility.yul\":5671:5750   */\n      tag_200\n      tag_108\n      jump\t// in\n    tag_200:\n        /* \"#utility.yul\":5633:5752   */\n    tag_199:\n        /* \"#utility.yul\":5791:5792   */\n      0x00\n        /* \"#utility.yul\":5816:5869   */\n      tag_201\n        /* \"#utility.yul\":5861:5868   */\n      dup6\n        /* \"#utility.yul\":5852:5858   */\n      dup3\n        /* \"#utility.yul\":5841:5850   */\n      dup7\n        /* \"#utility.yul\":5837:5859   */\n      add\n        /* \"#utility.yul\":5816:5869   */\n      tag_113\n      jump\t// in\n    tag_201:\n        /* \"#utility.yul\":5806:5869   */\n      swap3\n      pop\n        /* \"#utility.yul\":5762:5879   */\n      pop\n        /* \"#utility.yul\":5918:5920   */\n      0x20\n        /* \"#utility.yul\":5944:5997   */\n      tag_202\n        /* \"#utility.yul\":5989:5996   */\n      dup6\n        /* \"#utility.yul\":5980:5986   */\n      dup3\n        /* \"#utility.yul\":5969:5978   */\n      dup7\n        /* \"#utility.yul\":5965:5987   */\n      add\n        /* \"#utility.yul\":5944:5997   */\n      tag_113\n      jump\t// in\n    tag_202:\n        /* \"#utility.yul\":5934:5997   */\n      swap2\n      pop\n        /* \"#utility.yul\":5889:6007   */\n      pop\n        /* \"#utility.yul\":5540:6014   */\n      swap3\n      pop\n      swap3\n      swap1\n      pop\n      jump\t// out\n        /* \"#utility.yul\":6020:6247   */\n    tag_123:\n        /* \"#utility.yul\":6160:6194   */\n      0x45524332303a207472616e7366657220616d6f756e7420657863656564732061\n        /* \"#utility.yul\":6156:6157   */\n      0x00\n        /* \"#utility.yul\":6148:6154   */\n      dup3\n        /* \"#utility.yul\":6144:6158   */\n      add\n        /* \"#utility.yul\":6137:6195   */\n      mstore\n        /* \"#utility.yul\":6229:6239   */\n      0x6c6c6f77616e6365000000000000000000000000000000000000000000000000\n        /* \"#utility.yul\":6224:6226   */\n      0x20\n        /* \"#utility.yul\":6216:6222   */\n      dup3\n        /* \"#utility.yul\":6212:6227   */\n      add\n        /* \"#utility.yul\":6205:6240   */\n      mstore\n        /* \"#utility.yul\":6020:6247   */\n      pop\n      jump\t// out\n        /* \"#utility.yul\":6253:6619   */\n    tag_124:\n        /* \"#utility.yul\":6395:6398   */\n      0x00\n        /* \"#utility.yul\":6416:6483   */\n      tag_205\n        /* \"#utility.yul\":6480:6482   */\n      0x28\n        /* \"#utility.yul\":6475:6478   */\n      dup4\n        /* \"#utility.yul\":6416:6483   */\n      tag_103\n      jump\t// in\n    tag_205:\n        /* \"#utility.yul\":6409:6483   */\n      swap2\n      pop\n        /* \"#utility.yul\":6492:6585   */\n      tag_206\n        /* \"#utility.yul\":6581:6584   */\n      dup3\n        /* \"#utility.yul\":6492:6585   */\n      tag_123\n      jump\t// in\n    tag_206:\n        /* \"#utility.yul\":6610:6612   */\n      0x40\n        /* \"#utility.yul\":6605:6608   */\n      dup3\n        /* \"#utility.yul\":6601:6613   */\n      add\n        /* \"#utility.yul\":6594:6613   */\n      swap1\n      pop\n        /* \"#utility.yul\":6253:6619   */\n      swap2\n      swap1\n      pop\n      jump\t// out\n        /* \"#utility.yul\":6625:7044   */\n    tag_71:\n        /* \"#utility.yul\":6791:6795   */\n      0x00\n        /* \"#utility.yul\":6829:6831   */\n      0x20\n        /* \"#utility.yul\":6818:6827   */\n      dup3\n        /* \"#utility.yul\":6814:6832   */\n      add\n        /* \"#utility.yul\":6806:6832   */\n      swap1\n      pop\n        /* \"#utility.yul\":6878:6887   */\n      dup2\n        /* \"#utility.yul\":6872:6876   */\n      dup2\n        /* \"#utility.yul\":6868:6888   */\n      sub\n        /* \"#utility.yul\":6864:6865   */\n      0x00\n        /* \"#utility.yul\":6853:6862   */\n      dup4\n        /* \"#utility.yul\":6849:6866   */\n      add\n        /* \"#utility.yul\":6842:6889   */\n      mstore\n        /* \"#utility.yul\":6906:7037   */\n      tag_208\n        /* \"#utility.yul\":7032:7036   */\n      dup2\n        /* \"#utility.yul\":6906:7037   */\n      tag_124\n      jump\t// in\n    tag_208:\n        /* \"#utility.yul\":6898:7037   */\n      swap1\n      pop\n        /* \"#utility.yul\":6625:7044   */\n      swap2\n      swap1\n      pop\n      jump\t// out\n        /* \"#utility.yul\":7050:7230   */\n    tag_125:\n        /* \"#utility.yul\":7098:7175   */\n      0x4e487b7100000000000000000000000000000000000000000000000000000000\n        /* \"#utility.yul\":7095:7096   */\n      0x00\n        /* \"#utility.yul\":7088:7176   */\n      mstore\n        /* \"#utility.yul\":7195:7199   */\n      0x11\n        /* \"#utility.yul\":7192:7193   */\n      0x04\n        /* \"#utility.yul\":7185:7200   */\n      mstore\n        /* \"#utility.yul\":7219:7223   */\n      0x24\n        /* \"#utility.yul\":7216:7217   */\n      0x00\n        /* \"#utility.yul\":7209:7224   */\n      revert\n        /* \"#utility.yul\":7236:7430   */\n    tag_75:\n        /* \"#utility.yul\":7276:7280   */\n      0x00\n        /* \"#utility.yul\":7296:7316   */\n      tag_211\n        /* \"#utility.yul\":7314:7315   */\n      dup3\n        /* \"#utility.yul\":7296:7316   */\n      tag_114\n      jump\t// in\n    tag_211:\n        /* \"#utility.yul\":7291:7316   */\n      swap2\n      pop\n        /* \"#utility.yul\":7330:7350   */\n      tag_212\n        /* \"#utility.yul\":7348:7349   */\n      dup4\n        /* \"#utility.yul\":7330:7350   */\n      tag_114\n      jump\t// in\n    tag_212:\n        /* \"#utility.yul\":7325:7350   */\n      swap3\n      pop\n        /* \"#utility.yul\":7374:7375   */\n      dup3\n        /* \"#utility.yul\":7371:7372   */\n      dup3\n        /* \"#utility.yul\":7367:7376   */\n      sub\n        /* \"#utility.yul\":7359:7376   */\n      swap1\n      pop\n        /* \"#utility.yul\":7398:7399   */\n      dup2\n        /* \"#utility.yul\":7392:7396   */\n      dup2\n        /* \"#utility.yul\":7389:7400   */\n      gt\n        /* \"#utility.yul\":7386:7423   */\n      iszero\n      tag_213\n      jumpi\n        /* \"#utility.yul\":7403:7421   */\n      tag_214\n      tag_125\n      jump\t// in\n    tag_214:\n        /* \"#utility.yul\":7386:7423   */\n    tag_213:\n        /* \"#utility.yul\":7236:7430   */\n      swap3\n      swap2\n      pop\n      pop\n      jump\t// out\n        /* \"#utility.yul\":7436:7660   */\n    tag_126:\n        /* \"#utility.yul\":7576:7610   */\n      0x45524332303a207472616e736665722066726f6d20746865207a65726f206164\n        /* \"#utility.yul\":7572:7573   */\n      0x00\n        /* \"#utility.yul\":7564:7570   */\n      dup3\n        /* \"#utility.yul\":7560:7574   */\n      add\n        /* \"#utility.yul\":7553:7611   */\n      mstore\n        /* \"#utility.yul\":7645:7652   */\n      0x6472657373000000000000000000000000000000000000000000000000000000\n        /* \"#utility.yul\":7640:7642   */\n      0x20\n        /* \"#utility.yul\":7632:7638   */\n      dup3\n        /* \"#utility.yul\":7628:7643   */\n      add\n        /* \"#utility.yul\":7621:7653   */\n      mstore\n        /* \"#utility.yul\":7436:7660   */\n      pop\n      jump\t// out\n        /* \"#utility.yul\":7666:8032   */\n    tag_127:\n        /* \"#utility.yul\":7808:7811   */\n      0x00\n        /* \"#utility.yul\":7829:7896   */\n      tag_217\n        /* \"#utility.yul\":7893:7895   */\n      0x25\n        /* \"#utility.yul\":7888:7891   */\n      dup4\n        /* \"#utility.yul\":7829:7896   */\n      tag_103\n      jump\t// in\n    tag_217:\n        /* \"#utility.yul\":7822:7896   */\n      swap2\n      pop\n        /* \"#utility.yul\":7905:7998   */\n      tag_218\n        /* \"#utility.yul\":7994:7997   */\n      dup3\n        /* \"#utility.yul\":7905:7998   */\n      tag_126\n      jump\t// in\n    tag_218:\n        /* \"#utility.yul\":8023:8025   */\n      0x40\n        /* \"#utility.yul\":8018:8021   */\n      dup3\n        /* \"#utility.yul\":8014:8026   */\n      add\n        /* \"#utility.yul\":8007:8026   */\n      swap1\n      pop\n        /* \"#utility.yul\":7666:8032   */\n      swap2\n      swap1\n      pop\n      jump\t// out\n        /* \"#utility.yul\":8038:8457   */\n    tag_83:\n        /* \"#utility.yul\":8204:8208   */\n      0x00\n        /* \"#utility.yul\":8242:8244   */\n      0x20\n        /* \"#utility.yul\":8231:8240   */\n      dup3\n        /* \"#utility.yul\":8227:8245   */\n      add\n        /* \"#utility.yul\":8219:8245   */\n      swap1\n      pop\n        /* \"#utility.yul\":8291:8300   */\n      dup2\n        /* \"#utility.yul\":8285:8289   */\n      dup2\n        /* \"#utility.yul\":8281:8301   */\n      sub\n        /* \"#utility.yul\":8277:8278   */\n      0x00\n        /* \"#utility.yul\":8266:8275   */\n      dup4\n        /* \"#utility.yul\":8262:8279   */\n      add\n        /* \"#utility.yul\":8255:8302   */\n      mstore\n        /* \"#utility.yul\":8319:8450   */\n      tag_220\n        /* \"#utility.yul\":8445:8449   */\n      dup2\n        /* \"#utility.yul\":8319:8450   */\n      tag_127\n      jump\t// in\n    tag_220:\n        /* \"#utility.yul\":8311:8450   */\n      swap1\n      pop\n        /* \"#utility.yul\":8038:8457   */\n      swap2\n      swap1\n      pop\n      jump\t// out\n        /* \"#utility.yul\":8463:8685   */\n    tag_128:\n        /* \"#utility.yul\":8603:8637   */\n      0x45524332303a207472616e7366657220746f20746865207a65726f2061646472\n        /* \"#utility.yul\":8599:8600   */\n      0x00\n        /* \"#utility.yul\":8591:8597   */\n      dup3\n        /* \"#utility.yul\":8587:8601   */\n      add\n        /* \"#utility.yul\":8580:8638   */\n      mstore\n        /* \"#utility.yul\":8672:8677   */\n      0x6573730000000000000000000000000000000000000000000000000000000000\n        /* \"#utility.yul\":8667:8669   */\n      0x20\n        /* \"#utility.yul\":8659:8665   */\n      dup3\n        /* \"#utility.yul\":8655:8670   */\n      add\n        /* \"#utility.yul\":8648:8678   */\n      mstore\n        /* \"#utility.yul\":8463:8685   */\n      pop\n      jump\t// out\n        /* \"#utility.yul\":8691:9057   */\n    tag_129:\n        /* \"#utility.yul\":8833:8836   */\n      0x00\n        /* \"#utility.yul\":8854:8921   */\n      tag_223\n        /* \"#utility.yul\":8918:8920   */\n      0x23\n        /* \"#utility.yul\":8913:8916   */\n      dup4\n        /* \"#utility.yul\":8854:8921   */\n      tag_103\n      jump\t// in\n    tag_223:\n        /* \"#utility.yul\":8847:8921   */\n      swap2\n      pop\n        /* \"#utility.yul\":8930:9023   */\n      tag_224\n        /* \"#utility.yul\":9019:9022   */\n      dup3\n        /* \"#utility.yul\":8930:9023   */\n      tag_128\n      jump\t// in\n    tag_224:\n        /* \"#utility.yul\":9048:9050   */\n      0x40\n        /* \"#utility.yul\":9043:9046   */\n      dup3\n        /* \"#utility.yul\":9039:9051   */\n      add\n        /* \"#utility.yul\":9032:9051   */\n      swap1\n      pop\n        /* \"#utility.yul\":8691:9057   */\n      swap2\n      swap1\n      pop\n      jump\t// out\n        /* \"#utility.yul\":9063:9482   */\n    tag_86:\n        /* \"#utility.yul\":9229:9233   */\n      0x00\n        /* \"#utility.yul\":9267:9269   */\n      0x20\n        /* \"#utility.yul\":9256:9265   */\n      dup3\n        /* \"#utility.yul\":9252:9270   */\n      add\n        /* \"#utility.yul\":9244:9270   */\n      swap1\n      pop\n        /* \"#utility.yul\":9316:9325   */\n      dup2\n        /* \"#utility.yul\":9310:9314   */\n      dup2\n        /* \"#utility.yul\":9306:9326   */\n      sub\n        /* \"#utility.yul\":9302:9303   */\n      0x00\n        /* \"#utility.yul\":9291:9300   */\n      dup4\n        /* \"#utility.yul\":9287:9304   */\n      add\n        /* \"#utility.yul\":9280:9327   */\n      mstore\n        /* \"#utility.yul\":9344:9475   */\n      tag_226\n        /* \"#utility.yul\":9470:9474   */\n      dup2\n        /* \"#utility.yul\":9344:9475   */\n      tag_129\n      jump\t// in\n    tag_226:\n        /* \"#utility.yul\":9336:9475   */\n      swap1\n      pop\n        /* \"#utility.yul\":9063:9482   */\n      swap2\n      swap1\n      pop\n      jump\t// out\n        /* \"#utility.yul\":9488:9713   */\n    tag_130:\n        /* \"#utility.yul\":9628:9662   */\n      0x45524332303a207472616e7366657220616d6f756e7420657863656564732062\n        /* \"#utility.yul\":9624:9625   */\n      0x00\n        /* \"#utility.yul\":9616:9622   */\n      dup3\n        /* \"#utility.yul\":9612:9626   */\n      add\n        /* \"#utility.yul\":9605:9663   */\n      mstore\n        /* \"#utility.yul\":9697:9705   */\n      0x616c616e63650000000000000000000000000000000000000000000000000000\n        /* \"#utility.yul\":9692:9694   */\n      0x20\n        /* \"#utility.yul\":9684:9690   */\n      dup3\n        /* \"#utility.yul\":9680:9695   */\n      add\n        /* \"#utility.yul\":9673:9706   */\n      mstore\n        /* \"#utility.yul\":9488:9713   */\n      pop\n      jump\t// out\n        /* \"#utility.yul\":9719:10085   */\n    tag_131:\n        /* \"#utility.yul\":9861:9864   */\n      0x00\n        /* \"#utility.yul\":9882:9949   */\n      tag_229\n        /* \"#utility.yul\":9946:9948   */\n      0x26\n        /* \"#utility.yul\":9941:9944   */\n      dup4\n        /* \"#utility.yul\":9882:9949   */\n      tag_103\n      jump\t// in\n    tag_229:\n        /* \"#utility.yul\":9875:9949   */\n      swap2\n      pop\n        /* \"#utility.yul\":9958:10051   */\n      tag_230\n        /* \"#utility.yul\":10047:10050   */\n      dup3\n        /* \"#utility.yul\":9958:10051   */\n      tag_130\n      jump\t// in\n    tag_230:\n        /* \"#utility.yul\":10076:10078   */\n      0x40\n        /* \"#utility.yul\":10071:10074   */\n      dup3\n        /* \"#utility.yul\":10067:10079   */\n      add\n        /* \"#utility.yul\":10060:10079   */\n      swap1\n      pop\n        /* \"#utility.yul\":9719:10085   */\n      swap2\n      swap1\n      pop\n      jump\t// out\n        /* \"#utility.yul\":10091:10510   */\n    tag_89:\n        /* \"#utility.yul\":10257:10261   */\n      0x00\n        /* \"#utility.yul\":10295:10297   */\n      0x20\n        /* \"#utility.yul\":10284:10293   */\n      dup3\n        /* \"#utility.yul\":10280:10298   */\n      add\n        /* \"#utility.yul\":10272:10298   */\n      swap1\n      pop\n        /* \"#utility.yul\":10344:10353   */\n      dup2\n        /* \"#utility.yul\":10338:10342   */\n      dup2\n        /* \"#utility.yul\":10334:10354   */\n      sub\n        /* \"#utility.yul\":10330:10331   */\n      0x00\n        /* \"#utility.yul\":10319:10328   */\n      dup4\n        /* \"#utility.yul\":10315:10332   */\n      add\n        /* \"#utility.yul\":10308:10355   */\n      mstore\n        /* \"#utility.yul\":10372:10503   */\n      tag_232\n        /* \"#utility.yul\":10498:10502   */\n      dup2\n        /* \"#utility.yul\":10372:10503   */\n      tag_131\n      jump\t// in\n    tag_232:\n        /* \"#utility.yul\":10364:10503   */\n      swap1\n      pop\n        /* \"#utility.yul\":10091:10510   */\n      swap2\n      swap1\n      pop\n      jump\t// out\n        /* \"#utility.yul\":10516:10926   */\n    tag_91:\n        /* \"#utility.yul\":10556:10563   */\n      0x00\n        /* \"#utility.yul\":10579:10599   */\n      tag_234\n        /* \"#utility.yul\":10597:10598   */\n      dup3\n        /* \"#utility.yul\":10579:10599   */\n      tag_114\n      jump\t// in\n    tag_234:\n        /* \"#utility.yul\":10574:10599   */\n      swap2\n      pop\n        /* \"#utility.yul\":10613:10633   */\n      tag_235\n        /* \"#utility.yul\":10631:10632   */\n      dup4\n        /* \"#utility.yul\":10613:10633   */\n      tag_114\n      jump\t// in\n    tag_235:\n        /* \"#utility.yul\":10608:10633   */\n      swap3\n      pop\n        /* \"#utility.yul\":10668:10669   */\n      dup3\n        /* \"#utility.yul\":10665:10666   */\n      dup3\n        /* \"#utility.yul\":10661:10670   */\n      mul\n        /* \"#utility.yul\":10690:10720   */\n      tag_236\n        /* \"#utility.yul\":10708:10719   */\n      dup2\n        /* \"#utility.yul\":10690:10720   */\n      tag_114\n      jump\t// in\n    tag_236:\n        /* \"#utility.yul\":10679:10720   */\n      swap2\n      pop\n        /* \"#utility.yul\":10869:10870   */\n      dup3\n        /* \"#utility.yul\":10860:10867   */\n      dup3\n        /* \"#utility.yul\":10856:10871   */\n      div\n        /* \"#utility.yul\":10853:10854   */\n      dup5\n        /* \"#utility.yul\":10850:10872   */\n      eq\n        /* \"#utility.yul\":10830:10831   */\n      dup4\n        /* \"#utility.yul\":10823:10832   */\n      iszero\n        /* \"#utility.yul\":10803:10886   */\n      or\n        /* \"#utility.yul\":10780:10919   */\n      tag_237\n      jumpi\n        /* \"#utility.yul\":10899:10917   */\n      tag_238\n      tag_125\n      jump\t// in\n    tag_238:\n        /* \"#utility.yul\":10780:10919   */\n    tag_237:\n        /* \"#utility.yul\":10564:10926   */\n      pop\n        /* \"#utility.yul\":10516:10926   */\n      swap3\n      swap2\n      pop\n      pop\n      jump\t// out\n        /* \"#utility.yul\":10932:11112   */\n    tag_132:\n        /* \"#utility.yul\":10980:11057   */\n      0x4e487b7100000000000000000000000000000000000000000000000000000000\n        /* \"#utility.yul\":10977:10978   */\n      0x00\n        /* \"#utility.yul\":10970:11058   */\n      mstore\n        /* \"#utility.yul\":11077:11081   */\n      0x12\n        /* \"#utility.yul\":11074:11075   */\n      0x04\n        /* \"#utility.yul\":11067:11082   */\n      mstore\n        /* \"#utility.yul\":11101:11105   */\n      0x24\n        /* \"#utility.yul\":11098:11099   */\n      0x00\n        /* \"#utility.yul\":11091:11106   */\n      revert\n        /* \"#utility.yul\":11118:11303   */\n    tag_93:\n        /* \"#utility.yul\":11158:11159   */\n      0x00\n        /* \"#utility.yul\":11175:11195   */\n      tag_241\n        /* \"#utility.yul\":11193:11194   */\n      dup3\n        /* \"#utility.yul\":11175:11195   */\n      tag_114\n      jump\t// in\n    tag_241:\n        /* \"#utility.yul\":11170:11195   */\n      swap2\n      pop\n        /* \"#utility.yul\":11209:11229   */\n      tag_242\n        /* \"#utility.yul\":11227:11228   */\n      dup4\n        /* \"#utility.yul\":11209:11229   */\n      tag_114\n      jump\t// in\n    tag_242:\n        /* \"#utility.yul\":11204:11229   */\n      swap3\n      pop\n        /* \"#utility.yul\":11248:11249   */\n      dup3\n        /* \"#utility.yul\":11238:11273   */\n      tag_243\n      jumpi\n        /* \"#utility.yul\":11253:11271   */\n      tag_244\n      tag_132\n      jump\t// in\n    tag_244:\n        /* \"#utility.yul\":11238:11273   */\n    tag_243:\n        /* \"#utility.yul\":11295:11296   */\n      dup3\n        /* \"#utility.yul\":11292:11293   */\n      dup3\n        /* \"#utility.yul\":11288:11297   */\n      div\n        /* \"#utility.yul\":11283:11297   */\n      swap1\n      pop\n        /* \"#utility.yul\":11118:11303   */\n      swap3\n      swap2\n      pop\n      pop\n      jump\t// out\n        /* \"#utility.yul\":11309:11500   */\n    tag_98:\n        /* \"#utility.yul\":11349:11352   */\n      0x00\n        /* \"#utility.yul\":11368:11388   */\n      tag_246\n        /* \"#utility.yul\":11386:11387   */\n      dup3\n        /* \"#utility.yul\":11368:11388   */\n      tag_114\n      jump\t// in\n    tag_246:\n        /* \"#utility.yul\":11363:11388   */\n      swap2\n      pop\n        /* \"#utility.yul\":11402:11422   */\n      tag_247\n        /* \"#utility.yul\":11420:11421   */\n      dup4\n        /* \"#utility.yul\":11402:11422   */\n      tag_114\n      jump\t// in\n    tag_247:\n        /* \"#utility.yul\":11397:11422   */\n      swap3\n      pop\n        /* \"#utility.yul\":11445:11446   */\n      dup3\n        /* \"#utility.yul\":11442:11443   */\n      dup3\n        /* \"#utility.yul\":11438:11447   */\n      add\n        /* \"#utility.yul\":11431:11447   */\n      swap1\n      pop\n        /* \"#utility.yul\":11466:11469   */\n      dup1\n        /* \"#utility.yul\":11463:11464   */\n      dup3\n        /* \"#utility.yul\":11460:11470   */\n      gt\n        /* \"#utility.yul\":11457:11493   */\n      iszero\n      tag_248\n      jumpi\n        /* \"#utility.yul\":11473:11491   */\n      tag_249\n      tag_125\n      jump\t// in\n    tag_249:\n        /* \"#utility.yul\":11457:11493   */\n    tag_248:\n        /* \"#utility.yul\":11309:11500   */\n      swap3\n      swap2\n      pop\n      pop\n      jump\t// out\n\n    auxdata: 0xa2646970667358221220d3da8134db5af809936708aaeb021dfd01f28fe3e6b87634742c0e8226d7381064736f6c63430008180033\n}\n",
				"bytecode": {
					"linkReferences": {},
					"object": "60a060405234801562000010575f80fd5b503373ffffffffffffffffffffffffffffffffffffffff1660808173ffffffffffffffffffffffffffffffffffffffff16815250505f6006600a620000569190620002b1565b633b9aca0062000067919062000301565b9050805f819055508060015f3373ffffffffffffffffffffffffffffffffffffffff1673ffffffffffffffffffffffffffffffffffffffff1681526020019081526020015f20819055503373ffffffffffffffffffffffffffffffffffffffff165f73ffffffffffffffffffffffffffffffffffffffff167fddf252ad1be2c89b69c2b068fc378daa952ba7f163c4a11628f55a4df523b3ef836040516200011091906200035c565b60405180910390a35062000377565b7f4e487b71000000000000000000000000000000000000000000000000000000005f52601160045260245ffd5b5f8160011c9050919050565b5f808291508390505b6001851115620001a9578086048111156200018157620001806200011f565b5b6001851615620001915780820291505b8081029050620001a1856200014c565b945062000161565b94509492505050565b5f82620001c3576001905062000295565b81620001d2575f905062000295565b8160018114620001eb5760028114620001f6576200022c565b600191505062000295565b60ff8411156200020b576200020a6200011f565b5b8360020a9150848211156200022557620002246200011f565b5b5062000295565b5060208310610133831016604e8410600b8410161715620002665782820a90508381111562000260576200025f6200011f565b5b62000295565b62000275848484600162000158565b925090508184048111156200028f576200028e6200011f565b5b81810290505b9392505050565b5f819050919050565b5f60ff82169050919050565b5f620002bd826200029c565b9150620002ca83620002a5565b9250620002f97fffffffffffffffffffffffffffffffffffffffffffffffffffffffffffffffff8484620001b2565b905092915050565b5f6200030d826200029c565b91506200031a836200029c565b92508282026200032a816200029c565b915082820484148315176200034457620003436200011f565b5b5092915050565b62000356816200029c565b82525050565b5f602082019050620003715f8301846200034b565b92915050565b6080516110716200039e5f395f81816105550152818161083701526108a601526110715ff3fe608060405234801561000f575f80fd5b50600436106100b2575f3560e01c806383f170be1161006f57806383f170be146101a05780638da5cb5b146101be57806395d89b41146101dc578063a51c9ace146101fa578063a9059cbb14610218578063dd62ed3e14610248576100b2565b806306fdde03146100b6578063095ea7b3146100d457806318160ddd1461010457806323b872dd14610122578063313ce5671461015257806370a0823114610170575b5f80fd5b6100be610278565b6040516100cb9190610a73565b60405180910390f35b6100ee60048036038101906100e99190610b24565b6102b1565b6040516100fb9190610b7c565b60405180910390f35b61010c61039e565b6040516101199190610ba4565b60405180910390f35b61013c60048036038101906101379190610bbd565b6103a3565b6040516101499190610b7c565b60405180910390f35b61015a610503565b6040516101679190610c28565b60405180910390f35b61018a60048036038101906101859190610c41565b610508565b6040516101979190610ba4565b60405180910390f35b6101a861054e565b6040516101b59190610ba4565b60405180910390f35b6101c6610553565b6040516101d39190610c7b565b60405180910390f35b6101e4610577565b6040516101f19190610a73565b60405180910390f35b6102026105b0565b60405161020f9190610ba4565b60405180910390f35b610232600480360381019061022d9190610b24565b6105b6565b60405161023f9190610b7c565b60405180910390f35b610262600480360381019061025d9190610c94565b6105cc565b60405161026f9190610ba4565b60405180910390f35b6040518060400160405280600881526020017f43696365726f6e6500000000000000000000000000000000000000000000000081525081565b5f8160025f3373ffffffffffffffffffffffffffffffffffffffff1673ffffffffffffffffffffffffffffffffffffffff1681526020019081526020015f205f8573ffffffffffffffffffffffffffffffffffffffff1673ffffffffffffffffffffffffffffffffffffffff1681526020019081526020015f20819055508273ffffffffffffffffffffffffffffffffffffffff163373ffffffffffffffffffffffffffffffffffffffff167f8c5be1e5ebec7d5bd14f71427d1e84f3dd0314c0f7b2291e5b200ac8c7c3b9258460405161038c9190610ba4565b60405180910390a36001905092915050565b5f5481565b5f8160025f8673ffffffffffffffffffffffffffffffffffffffff1673ffffffffffffffffffffffffffffffffffffffff1681526020019081526020015f205f3373ffffffffffffffffffffffffffffffffffffffff1673ffffffffffffffffffffffffffffffffffffffff1681526020019081526020015f2054101561045f576040517f08c379a000000000000000000000000000000000000000000000000000000000815260040161045690610d42565b60405180910390fd5b61046a84848461064e565b8160025f8673ffffffffffffffffffffffffffffffffffffffff1673ffffffffffffffffffffffffffffffffffffffff1681526020019081526020015f205f3373ffffffffffffffffffffffffffffffffffffffff1673ffffffffffffffffffffffffffffffffffffffff1681526020019081526020015f205f8282546104f19190610d8d565b92505081905550600190509392505050565b600681565b5f60015f8373ffffffffffffffffffffffffffffffffffffffff1673ffffffffffffffffffffffffffffffffffffffff1681526020019081526020015f20549050919050565b606481565b7f000000000000000000000000000000000000000000000000000000000000000081565b6040518060400160405280600381526020017f434943000000000000000000000000000000000000000000000000000000000081525081565b61271081565b5f6105c233848461064e565b6001905092915050565b5f60025f8473ffffffffffffffffffffffffffffffffffffffff1673ffffffffffffffffffffffffffffffffffffffff1681526020019081526020015f205f8373ffffffffffffffffffffffffffffffffffffffff1673ffffffffffffffffffffffffffffffffffffffff1681526020019081526020015f2054905092915050565b5f73ffffffffffffffffffffffffffffffffffffffff168373ffffffffffffffffffffffffffffffffffffffff16036106bc576040517f08c379a00000000000000000000000000000000000000000000000000000000081526004016106b390610e30565b60405180910390fd5b5f73ffffffffffffffffffffffffffffffffffffffff168273ffffffffffffffffffffffffffffffffffffffff160361072a576040517f08c379a000000000000000000000000000000000000000000000000000000000815260040161072190610ebe565b60405180910390fd5b8060015f8573ffffffffffffffffffffffffffffffffffffffff1673ffffffffffffffffffffffffffffffffffffffff1681526020019081526020015f205410156107aa576040517f08c379a00000000000000000000000000000000000000000000000000000000081526004016107a190610f4c565b60405180910390fd5b5f6127106064836107bb9190610f6a565b6107c59190610fd8565b90505f81836107d49190610d8d565b90508260015f8773ffffffffffffffffffffffffffffffffffffffff1673ffffffffffffffffffffffffffffffffffffffff1681526020019081526020015f205f8282546108229190610d8d565b925050819055505f82111561092a578160015f7f000000000000000000000000000000000000000000000000000000000000000073ffffffffffffffffffffffffffffffffffffffff1673ffffffffffffffffffffffffffffffffffffffff1681526020019081526020015f205f82825461089d9190611008565b925050819055507f000000000000000000000000000000000000000000000000000000000000000073ffffffffffffffffffffffffffffffffffffffff168573ffffffffffffffffffffffffffffffffffffffff167fddf252ad1be2c89b69c2b068fc378daa952ba7f163c4a11628f55a4df523b3ef846040516109219190610ba4565b60405180910390a35b8060015f8673ffffffffffffffffffffffffffffffffffffffff1673ffffffffffffffffffffffffffffffffffffffff1681526020019081526020015f205f8282546109769190611008565b925050819055508373ffffffffffffffffffffffffffffffffffffffff168573ffffffffffffffffffffffffffffffffffffffff167fddf252ad1be2c89b69c2b068fc378daa952ba7f163c4a11628f55a4df523b3ef836040516109da9190610ba4565b60405180910390a35050505050565b5f81519050919050565b5f82825260208201905092915050565b5f5b83811015610a20578082015181840152602081019050610a05565b5f8484015250505050565b5f601f19601f8301169050919050565b5f610a45826109e9565b610a4f81856109f3565b9350610a5f818560208601610a03565b610a6881610a2b565b840191505092915050565b5f6020820190508181035f830152610a8b8184610a3b565b905092915050565b5f80fd5b5f73ffffffffffffffffffffffffffffffffffffffff82169050919050565b5f610ac082610a97565b9050919050565b610ad081610ab6565b8114610ada575f80fd5b50565b5f81359050610aeb81610ac7565b92915050565b5f819050919050565b610b0381610af1565b8114610b0d575f80fd5b50565b5f81359050610b1e81610afa565b92915050565b5f8060408385031215610b3a57610b39610a93565b5b5f610b4785828601610add565b9250506020610b5885828601610b10565b9150509250929050565b5f8115159050919050565b610b7681610b62565b82525050565b5f602082019050610b8f5f830184610b6d565b92915050565b610b9e81610af1565b82525050565b5f602082019050610bb75f830184610b95565b92915050565b5f805f60608486031215610bd457610bd3610a93565b5b5f610be186828701610add565b9350506020610bf286828701610add565b9250506040610c0386828701610b10565b9150509250925092565b5f60ff82169050919050565b610c2281610c0d565b82525050565b5f602082019050610c3b5f830184610c19565b92915050565b5f60208284031215610c5657610c55610a93565b5b5f610c6384828501610add565b91505092915050565b610c7581610ab6565b82525050565b5f602082019050610c8e5f830184610c6c565b92915050565b5f8060408385031215610caa57610ca9610a93565b5b5f610cb785828601610add565b9250506020610cc885828601610add565b9150509250929050565b7f45524332303a207472616e7366657220616d6f756e74206578636565647320615f8201527f6c6c6f77616e6365000000000000000000000000000000000000000000000000602082015250565b5f610d2c6028836109f3565b9150610d3782610cd2565b604082019050919050565b5f6020820190508181035f830152610d5981610d20565b9050919050565b7f4e487b71000000000000000000000000000000000000000000000000000000005f52601160045260245ffd5b5f610d9782610af1565b9150610da283610af1565b9250828203905081811115610dba57610db9610d60565b5b92915050565b7f45524332303a207472616e736665722066726f6d20746865207a65726f2061645f8201527f6472657373000000000000000000000000000000000000000000000000000000602082015250565b5f610e1a6025836109f3565b9150610e2582610dc0565b604082019050919050565b5f6020820190508181035f830152610e4781610e0e565b9050919050565b7f45524332303a207472616e7366657220746f20746865207a65726f20616464725f8201527f6573730000000000000000000000000000000000000000000000000000000000602082015250565b5f610ea86023836109f3565b9150610eb382610e4e565b604082019050919050565b5f6020820190508181035f830152610ed581610e9c565b9050919050565b7f45524332303a207472616e7366657220616d6f756e74206578636565647320625f8201527f616c616e63650000000000000000000000000000000000000000000000000000602082015250565b5f610f366026836109f3565b9150610f4182610edc565b604082019050919050565b5f6020820190508181035f830152610f6381610f2a565b9050919050565b5f610f7482610af1565b9150610f7f83610af1565b9250828202610f8d81610af1565b91508282048414831517610fa457610fa3610d60565b5b5092915050565b7f4e487b71000000000000000000000000000000000000000000000000000000005f52601260045260245ffd5b5f610fe282610af1565b9150610fed83610af1565b925082610ffd57610ffc610fab565b5b828204905092915050565b5f61101282610af1565b915061101d83610af1565b925082820190508082111561103557611034610d60565b5b9291505056fea2646970667358221220d3da8134db5af809936708aaeb021dfd01f28fe3e6b87634742c0e8226d7381064736f6c63430008180033",
					"opcodes": "PUSH1 0xA0 PUSH1 0x40 MSTORE CALLVALUE DUP1 ISZERO PUSH3 0x10 JUMPI PUSH0 DUP1 REVERT JUMPDEST POP CALLER PUSH20 0xFFFFFFFFFFFFFFFFFFFFFFFFFFFFFFFFFFFFFFFF AND PUSH1 0x80 DUP2 PUSH20 0xFFFFFFFFFFFFFFFFFFFFFFFFFFFFFFFFFFFFFFFF AND DUP2 MSTORE POP POP PUSH0 PUSH1 0x6 PUSH1 0xA PUSH3 0x56 SWAP2 SWAP1 PUSH3 0x2B1 JUMP JUMPDEST PUSH4 0x3B9ACA00 PUSH3 0x67 SWAP2 SWAP1 PUSH3 0x301 JUMP JUMPDEST SWAP1 POP DUP1 PUSH0 DUP2 SWAP1 SSTORE POP DUP1 PUSH1 0x1 PUSH0 CALLER PUSH20 0xFFFFFFFFFFFFFFFFFFFFFFFFFFFFFFFFFFFFFFFF AND PUSH20 0xFFFFFFFFFFFFFFFFFFFFFFFFFFFFFFFFFFFFFFFF AND DUP2 MSTORE PUSH1 0x20 ADD SWAP1 DUP2 MSTORE PUSH1 0x20 ADD PUSH0 KECCAK256 DUP2 SWAP1 SSTORE POP CALLER PUSH20 0xFFFFFFFFFFFFFFFFFFFFFFFFFFFFFFFFFFFFFFFF AND PUSH0 PUSH20 0xFFFFFFFFFFFFFFFFFFFFFFFFFFFFFFFFFFFFFFFF AND PUSH32 0xDDF252AD1BE2C89B69C2B068FC378DAA952BA7F163C4A11628F55A4DF523B3EF DUP4 PUSH1 0x40 MLOAD PUSH3 0x110 SWAP2 SWAP1 PUSH3 0x35C JUMP JUMPDEST PUSH1 0x40 MLOAD DUP1 SWAP2 SUB SWAP1 LOG3 POP PUSH3 0x377 JUMP JUMPDEST PUSH32 0x4E487B7100000000000000000000000000000000000000000000000000000000 PUSH0 MSTORE PUSH1 0x11 PUSH1 0x4 MSTORE PUSH1 0x24 PUSH0 REVERT JUMPDEST PUSH0 DUP2 PUSH1 0x1 SHR SWAP1 POP SWAP2 SWAP1 POP JUMP JUMPDEST PUSH0 DUP1 DUP3 SWAP2 POP DUP4 SWAP1 POP JUMPDEST PUSH1 0x1 DUP6 GT ISZERO PUSH3 0x1A9 JUMPI DUP1 DUP7 DIV DUP2 GT ISZERO PUSH3 0x181 JUMPI PUSH3 0x180 PUSH3 0x11F JUMP JUMPDEST JUMPDEST PUSH1 0x1 DUP6 AND ISZERO PUSH3 0x191 JUMPI DUP1 DUP3 MUL SWAP2 POP JUMPDEST DUP1 DUP2 MUL SWAP1 POP PUSH3 0x1A1 DUP6 PUSH3 0x14C JUMP JUMPDEST SWAP5 POP PUSH3 0x161 JUMP JUMPDEST SWAP5 POP SWAP5 SWAP3 POP POP POP JUMP JUMPDEST PUSH0 DUP3 PUSH3 0x1C3 JUMPI PUSH1 0x1 SWAP1 POP PUSH3 0x295 JUMP JUMPDEST DUP2 PUSH3 0x1D2 JUMPI PUSH0 SWAP1 POP PUSH3 0x295 JUMP JUMPDEST DUP2 PUSH1 0x1 DUP2 EQ PUSH3 0x1EB JUMPI PUSH1 0x2 DUP2 EQ PUSH3 0x1F6 JUMPI PUSH3 0x22C JUMP JUMPDEST PUSH1 0x1 SWAP2 POP POP PUSH3 0x295 JUMP JUMPDEST PUSH1 0xFF DUP5 GT ISZERO PUSH3 0x20B JUMPI PUSH3 0x20A PUSH3 0x11F JUMP JUMPDEST JUMPDEST DUP4 PUSH1 0x2 EXP SWAP2 POP DUP5 DUP3 GT ISZERO PUSH3 0x225 JUMPI PUSH3 0x224 PUSH3 0x11F JUMP JUMPDEST JUMPDEST POP PUSH3 0x295 JUMP JUMPDEST POP PUSH1 0x20 DUP4 LT PUSH2 0x133 DUP4 LT AND PUSH1 0x4E DUP5 LT PUSH1 0xB DUP5 LT AND OR ISZERO PUSH3 0x266 JUMPI DUP3 DUP3 EXP SWAP1 POP DUP4 DUP2 GT ISZERO PUSH3 0x260 JUMPI PUSH3 0x25F PUSH3 0x11F JUMP JUMPDEST JUMPDEST PUSH3 0x295 JUMP JUMPDEST PUSH3 0x275 DUP5 DUP5 DUP5 PUSH1 0x1 PUSH3 0x158 JUMP JUMPDEST SWAP3 POP SWAP1 POP DUP2 DUP5 DIV DUP2 GT ISZERO PUSH3 0x28F JUMPI PUSH3 0x28E PUSH3 0x11F JUMP JUMPDEST JUMPDEST DUP2 DUP2 MUL SWAP1 POP JUMPDEST SWAP4 SWAP3 POP POP POP JUMP JUMPDEST PUSH0 DUP2 SWAP1 POP SWAP2 SWAP1 POP JUMP JUMPDEST PUSH0 PUSH1 0xFF DUP3 AND SWAP1 POP SWAP2 SWAP1 POP JUMP JUMPDEST PUSH0 PUSH3 0x2BD DUP3 PUSH3 0x29C JUMP JUMPDEST SWAP2 POP PUSH3 0x2CA DUP4 PUSH3 0x2A5 JUMP JUMPDEST SWAP3 POP PUSH3 0x2F9 PUSH32 0xFFFFFFFFFFFFFFFFFFFFFFFFFFFFFFFFFFFFFFFFFFFFFFFFFFFFFFFFFFFFFFFF DUP5 DUP5 PUSH3 0x1B2 JUMP JUMPDEST SWAP1 POP SWAP3 SWAP2 POP POP JUMP JUMPDEST PUSH0 PUSH3 0x30D DUP3 PUSH3 0x29C JUMP JUMPDEST SWAP2 POP PUSH3 0x31A DUP4 PUSH3 0x29C JUMP JUMPDEST SWAP3 POP DUP3 DUP3 MUL PUSH3 0x32A DUP2 PUSH3 0x29C JUMP JUMPDEST SWAP2 POP DUP3 DUP3 DIV DUP5 EQ DUP4 ISZERO OR PUSH3 0x344 JUMPI PUSH3 0x343 PUSH3 0x11F JUMP JUMPDEST JUMPDEST POP SWAP3 SWAP2 POP POP JUMP JUMPDEST PUSH3 0x356 DUP2 PUSH3 0x29C JUMP JUMPDEST DUP3 MSTORE POP POP JUMP JUMPDEST PUSH0 PUSH1 0x20 DUP3 ADD SWAP1 POP PUSH3 0x371 PUSH0 DUP4 ADD DUP5 PUSH3 0x34B JUMP JUMPDEST SWAP3 SWAP2 POP POP JUMP JUMPDEST PUSH1 0x80 MLOAD PUSH2 0x1071 PUSH3 0x39E PUSH0 CODECOPY PUSH0 DUP2 DUP2 PUSH2 0x555 ADD MSTORE DUP2 DUP2 PUSH2 0x837 ADD MSTORE PUSH2 0x8A6 ADD MSTORE PUSH2 0x1071 PUSH0 RETURN INVALID PUSH1 0x80 PUSH1 0x40 MSTORE CALLVALUE DUP1 ISZERO PUSH2 0xF JUMPI PUSH0 DUP1 REVERT JUMPDEST POP PUSH1 0x4 CALLDATASIZE LT PUSH2 0xB2 JUMPI PUSH0 CALLDATALOAD PUSH1 0xE0 SHR DUP1 PUSH4 0x83F170BE GT PUSH2 0x6F JUMPI DUP1 PUSH4 0x83F170BE EQ PUSH2 0x1A0 JUMPI DUP1 PUSH4 0x8DA5CB5B EQ PUSH2 0x1BE JUMPI DUP1 PUSH4 0x95D89B41 EQ PUSH2 0x1DC JUMPI DUP1 PUSH4 0xA51C9ACE EQ PUSH2 0x1FA JUMPI DUP1 PUSH4 0xA9059CBB EQ PUSH2 0x218 JUMPI DUP1 PUSH4 0xDD62ED3E EQ PUSH2 0x248 JUMPI PUSH2 0xB2 JUMP JUMPDEST DUP1 PUSH4 0x6FDDE03 EQ PUSH2 0xB6 JUMPI DUP1 PUSH4 0x95EA7B3 EQ PUSH2 0xD4 JUMPI DUP1 PUSH4 0x18160DDD EQ PUSH2 0x104 JUMPI DUP1 PUSH4 0x23B872DD EQ PUSH2 0x122 JUMPI DUP1 PUSH4 0x313CE567 EQ PUSH2 0x152 JUMPI DUP1 PUSH4 0x70A08231 EQ PUSH2 0x170 JUMPI JUMPDEST PUSH0 DUP1 REVERT JUMPDEST PUSH2 0xBE PUSH2 0x278 JUMP JUMPDEST PUSH1 0x40 MLOAD PUSH2 0xCB SWAP2 SWAP1 PUSH2 0xA73 JUMP JUMPDEST PUSH1 0x40 MLOAD DUP1 SWAP2 SUB SWAP1 RETURN JUMPDEST PUSH2 0xEE PUSH1 0x4 DUP1 CALLDATASIZE SUB DUP2 ADD SWAP1 PUSH2 0xE9 SWAP2 SWAP1 PUSH2 0xB24 JUMP JUMPDEST PUSH2 0x2B1 JUMP JUMPDEST PUSH1 0x40 MLOAD PUSH2 0xFB SWAP2 SWAP1 PUSH2 0xB7C JUMP JUMPDEST PUSH1 0x40 MLOAD DUP1 SWAP2 SUB SWAP1 RETURN JUMPDEST PUSH2 0x10C PUSH2 0x39E JUMP JUMPDEST PUSH1 0x40 MLOAD PUSH2 0x119 SWAP2 SWAP1 PUSH2 0xBA4 JUMP JUMPDEST PUSH1 0x40 MLOAD DUP1 SWAP2 SUB SWAP1 RETURN JUMPDEST PUSH2 0x13C PUSH1 0x4 DUP1 CALLDATASIZE SUB DUP2 ADD SWAP1 PUSH2 0x137 SWAP2 SWAP1 PUSH2 0xBBD JUMP JUMPDEST PUSH2 0x3A3 JUMP JUMPDEST PUSH1 0x40 MLOAD PUSH2 0x149 SWAP2 SWAP1 PUSH2 0xB7C JUMP JUMPDEST PUSH1 0x40 MLOAD DUP1 SWAP2 SUB SWAP1 RETURN JUMPDEST PUSH2 0x15A PUSH2 0x503 JUMP JUMPDEST PUSH1 0x40 MLOAD PUSH2 0x167 SWAP2 SWAP1 PUSH2 0xC28 JUMP JUMPDEST PUSH1 0x40 MLOAD DUP1 SWAP2 SUB SWAP1 RETURN JUMPDEST PUSH2 0x18A PUSH1 0x4 DUP1 CALLDATASIZE SUB DUP2 ADD SWAP1 PUSH2 0x185 SWAP2 SWAP1 PUSH2 0xC41 JUMP JUMPDEST PUSH2 0x508 JUMP JUMPDEST PUSH1 0x40 MLOAD PUSH2 0x197 SWAP2 SWAP1 PUSH2 0xBA4 JUMP JUMPDEST PUSH1 0x40 MLOAD DUP1 SWAP2 SUB SWAP1 RETURN JUMPDEST PUSH2 0x1A8 PUSH2 0x54E JUMP JUMPDEST PUSH1 0x40 MLOAD PUSH2 0x1B5 SWAP2 SWAP1 PUSH2 0xBA4 JUMP JUMPDEST PUSH1 0x40 MLOAD DUP1 SWAP2 SUB SWAP1 RETURN JUMPDEST PUSH2 0x1C6 PUSH2 0x553 JUMP JUMPDEST PUSH1 0x40 MLOAD PUSH2 0x1D3 SWAP2 SWAP1 PUSH2 0xC7B JUMP JUMPDEST PUSH1 0x40 MLOAD DUP1 SWAP2 SUB SWAP1 RETURN JUMPDEST PUSH2 0x1E4 PUSH2 0x577 JUMP JUMPDEST PUSH1 0x40 MLOAD PUSH2 0x1F1 SWAP2 SWAP1 PUSH2 0xA73 JUMP JUMPDEST PUSH1 0x40 MLOAD DUP1 SWAP2 SUB SWAP1 RETURN JUMPDEST PUSH2 0x202 PUSH2 0x5B0 JUMP JUMPDEST PUSH1 0x40 MLOAD PUSH2 0x20F SWAP2 SWAP1 PUSH2 0xBA4 JUMP JUMPDEST PUSH1 0x40 MLOAD DUP1 SWAP2 SUB SWAP1 RETURN JUMPDEST PUSH2 0x232 PUSH1 0x4 DUP1 CALLDATASIZE SUB DUP2 ADD SWAP1 PUSH2 0x22D SWAP2 SWAP1 PUSH2 0xB24 JUMP JUMPDEST PUSH2 0x5B6 JUMP JUMPDEST PUSH1 0x40 MLOAD PUSH2 0x23F SWAP2 SWAP1 PUSH2 0xB7C JUMP JUMPDEST PUSH1 0x40 MLOAD DUP1 SWAP2 SUB SWAP1 RETURN JUMPDEST PUSH2 0x262 PUSH1 0x4 DUP1 CALLDATASIZE SUB DUP2 ADD SWAP1 PUSH2 0x25D SWAP2 SWAP1 PUSH2 0xC94 JUMP JUMPDEST PUSH2 0x5CC JUMP JUMPDEST PUSH1 0x40 MLOAD PUSH2 0x26F SWAP2 SWAP1 PUSH2 0xBA4 JUMP JUMPDEST PUSH1 0x40 MLOAD DUP1 SWAP2 SUB SWAP1 RETURN JUMPDEST PUSH1 0x40 MLOAD DUP1 PUSH1 0x40 ADD PUSH1 0x40 MSTORE DUP1 PUSH1 0x8 DUP2 MSTORE PUSH1 0x20 ADD PUSH32 0x43696365726F6E65000000000000000000000000000000000000000000000000 DUP2 MSTORE POP DUP2 JUMP JUMPDEST PUSH0 DUP2 PUSH1 0x2 PUSH0 CALLER PUSH20 0xFFFFFFFFFFFFFFFFFFFFFFFFFFFFFFFFFFFFFFFF AND PUSH20 0xFFFFFFFFFFFFFFFFFFFFFFFFFFFFFFFFFFFFFFFF AND DUP2 MSTORE PUSH1 0x20 ADD SWAP1 DUP2 MSTORE PUSH1 0x20 ADD PUSH0 KECCAK256 PUSH0 DUP6 PUSH20 0xFFFFFFFFFFFFFFFFFFFFFFFFFFFFFFFFFFFFFFFF AND PUSH20 0xFFFFFFFFFFFFFFFFFFFFFFFFFFFFFFFFFFFFFFFF AND DUP2 MSTORE PUSH1 0x20 ADD SWAP1 DUP2 MSTORE PUSH1 0x20 ADD PUSH0 KECCAK256 DUP2 SWAP1 SSTORE POP DUP3 PUSH20 0xFFFFFFFFFFFFFFFFFFFFFFFFFFFFFFFFFFFFFFFF AND CALLER PUSH20 0xFFFFFFFFFFFFFFFFFFFFFFFFFFFFFFFFFFFFFFFF AND PUSH32 0x8C5BE1E5EBEC7D5BD14F71427D1E84F3DD0314C0F7B2291E5B200AC8C7C3B925 DUP5 PUSH1 0x40 MLOAD PUSH2 0x38C SWAP2 SWAP1 PUSH2 0xBA4 JUMP JUMPDEST PUSH1 0x40 MLOAD DUP1 SWAP2 SUB SWAP1 LOG3 PUSH1 0x1 SWAP1 POP SWAP3 SWAP2 POP POP JUMP JUMPDEST PUSH0 SLOAD DUP2 JUMP JUMPDEST PUSH0 DUP2 PUSH1 0x2 PUSH0 DUP7 PUSH20 0xFFFFFFFFFFFFFFFFFFFFFFFFFFFFFFFFFFFFFFFF AND PUSH20 0xFFFFFFFFFFFFFFFFFFFFFFFFFFFFFFFFFFFFFFFF AND DUP2 MSTORE PUSH1 0x20 ADD SWAP1 DUP2 MSTORE PUSH1 0x20 ADD PUSH0 KECCAK256 PUSH0 CALLER PUSH20 0xFFFFFFFFFFFFFFFFFFFFFFFFFFFFFFFFFFFFFFFF AND PUSH20 0xFFFFFFFFFFFFFFFFFFFFFFFFFFFFFFFFFFFFFFFF AND DUP2 MSTORE PUSH1 0x20 ADD SWAP1 DUP2 MSTORE PUSH1 0x20 ADD PUSH0 KECCAK256 SLOAD LT ISZERO PUSH2 0x45F JUMPI PUSH1 0x40 MLOAD PUSH32 0x8C379A000000000000000000000000000000000000000000000000000000000 DUP2 MSTORE PUSH1 0x4 ADD PUSH2 0x456 SWAP1 PUSH2 0xD42 JUMP JUMPDEST PUSH1 0x40 MLOAD DUP1 SWAP2 SUB SWAP1 REVERT JUMPDEST PUSH2 0x46A DUP5 DUP5 DUP5 PUSH2 0x64E JUMP JUMPDEST DUP2 PUSH1 0x2 PUSH0 DUP7 PUSH20 0xFFFFFFFFFFFFFFFFFFFFFFFFFFFFFFFFFFFFFFFF AND PUSH20 0xFFFFFFFFFFFFFFFFFFFFFFFFFFFFFFFFFFFFFFFF AND DUP2 MSTORE PUSH1 0x20 ADD SWAP1 DUP2 MSTORE PUSH1 0x20 ADD PUSH0 KECCAK256 PUSH0 CALLER PUSH20 0xFFFFFFFFFFFFFFFFFFFFFFFFFFFFFFFFFFFFFFFF AND PUSH20 0xFFFFFFFFFFFFFFFFFFFFFFFFFFFFFFFFFFFFFFFF AND DUP2 MSTORE PUSH1 0x20 ADD SWAP1 DUP2 MSTORE PUSH1 0x20 ADD PUSH0 KECCAK256 PUSH0 DUP3 DUP3 SLOAD PUSH2 0x4F1 SWAP2 SWAP1 PUSH2 0xD8D JUMP JUMPDEST SWAP3 POP POP DUP2 SWAP1 SSTORE POP PUSH1 0x1 SWAP1 POP SWAP4 SWAP3 POP POP POP JUMP JUMPDEST PUSH1 0x6 DUP2 JUMP JUMPDEST PUSH0 PUSH1 0x1 PUSH0 DUP4 PUSH20 0xFFFFFFFFFFFFFFFFFFFFFFFFFFFFFFFFFFFFFFFF AND PUSH20 0xFFFFFFFFFFFFFFFFFFFFFFFFFFFFFFFFFFFFFFFF AND DUP2 MSTORE PUSH1 0x20 ADD SWAP1 DUP2 MSTORE PUSH1 0x20 ADD PUSH0 KECCAK256 SLOAD SWAP1 POP SWAP2 SWAP1 POP JUMP JUMPDEST PUSH1 0x64 DUP2 JUMP JUMPDEST PUSH32 0x0 DUP2 JUMP JUMPDEST PUSH1 0x40 MLOAD DUP1 PUSH1 0x40 ADD PUSH1 0x40 MSTORE DUP1 PUSH1 0x3 DUP2 MSTORE PUSH1 0x20 ADD PUSH32 0x4349430000000000000000000000000000000000000000000000000000000000 DUP2 MSTORE POP DUP2 JUMP JUMPDEST PUSH2 0x2710 DUP2 JUMP JUMPDEST PUSH0 PUSH2 0x5C2 CALLER DUP5 DUP5 PUSH2 0x64E JUMP JUMPDEST PUSH1 0x1 SWAP1 POP SWAP3 SWAP2 POP POP JUMP JUMPDEST PUSH0 PUSH1 0x2 PUSH0 DUP5 PUSH20 0xFFFFFFFFFFFFFFFFFFFFFFFFFFFFFFFFFFFFFFFF AND PUSH20 0xFFFFFFFFFFFFFFFFFFFFFFFFFFFFFFFFFFFFFFFF AND DUP2 MSTORE PUSH1 0x20 ADD SWAP1 DUP2 MSTORE PUSH1 0x20 ADD PUSH0 KECCAK256 PUSH0 DUP4 PUSH20 0xFFFFFFFFFFFFFFFFFFFFFFFFFFFFFFFFFFFFFFFF AND PUSH20 0xFFFFFFFFFFFFFFFFFFFFFFFFFFFFFFFFFFFFFFFF AND DUP2 MSTORE PUSH1 0x20 ADD SWAP1 DUP2 MSTORE PUSH1 0x20 ADD PUSH0 KECCAK256 SLOAD SWAP1 POP SWAP3 SWAP2 POP POP JUMP JUMPDEST PUSH0 PUSH20 0xFFFFFFFFFFFFFFFFFFFFFFFFFFFFFFFFFFFFFFFF AND DUP4 PUSH20 0xFFFFFFFFFFFFFFFFFFFFFFFFFFFFFFFFFFFFFFFF AND SUB PUSH2 0x6BC JUMPI PUSH1 0x40 MLOAD PUSH32 0x8C379A000000000000000000000000000000000000000000000000000000000 DUP2 MSTORE PUSH1 0x4 ADD PUSH2 0x6B3 SWAP1 PUSH2 0xE30 JUMP JUMPDEST PUSH1 0x40 MLOAD DUP1 SWAP2 SUB SWAP1 REVERT JUMPDEST PUSH0 PUSH20 0xFFFFFFFFFFFFFFFFFFFFFFFFFFFFFFFFFFFFFFFF AND DUP3 PUSH20 0xFFFFFFFFFFFFFFFFFFFFFFFFFFFFFFFFFFFFFFFF AND SUB PUSH2 0x72A JUMPI PUSH1 0x40 MLOAD PUSH32 0x8C379A000000000000000000000000000000000000000000000000000000000 DUP2 MSTORE PUSH1 0x4 ADD PUSH2 0x721 SWAP1 PUSH2 0xEBE JUMP JUMPDEST PUSH1 0x40 MLOAD DUP1 SWAP2 SUB SWAP1 REVERT JUMPDEST DUP1 PUSH1 0x1 PUSH0 DUP6 PUSH20 0xFFFFFFFFFFFFFFFFFFFFFFFFFFFFFFFFFFFFFFFF AND PUSH20 0xFFFFFFFFFFFFFFFFFFFFFFFFFFFFFFFFFFFFFFFF AND DUP2 MSTORE PUSH1 0x20 ADD SWAP1 DUP2 MSTORE PUSH1 0x20 ADD PUSH0 KECCAK256 SLOAD LT ISZERO PUSH2 0x7AA JUMPI PUSH1 0x40 MLOAD PUSH32 0x8C379A000000000000000000000000000000000000000000000000000000000 DUP2 MSTORE PUSH1 0x4 ADD PUSH2 0x7A1 SWAP1 PUSH2 0xF4C JUMP JUMPDEST PUSH1 0x40 MLOAD DUP1 SWAP2 SUB SWAP1 REVERT JUMPDEST PUSH0 PUSH2 0x2710 PUSH1 0x64 DUP4 PUSH2 0x7BB SWAP2 SWAP1 PUSH2 0xF6A JUMP JUMPDEST PUSH2 0x7C5 SWAP2 SWAP1 PUSH2 0xFD8 JUMP JUMPDEST SWAP1 POP PUSH0 DUP2 DUP4 PUSH2 0x7D4 SWAP2 SWAP1 PUSH2 0xD8D JUMP JUMPDEST SWAP1 POP DUP3 PUSH1 0x1 PUSH0 DUP8 PUSH20 0xFFFFFFFFFFFFFFFFFFFFFFFFFFFFFFFFFFFFFFFF AND PUSH20 0xFFFFFFFFFFFFFFFFFFFFFFFFFFFFFFFFFFFFFFFF AND DUP2 MSTORE PUSH1 0x20 ADD SWAP1 DUP2 MSTORE PUSH1 0x20 ADD PUSH0 KECCAK256 PUSH0 DUP3 DUP3 SLOAD PUSH2 0x822 SWAP2 SWAP1 PUSH2 0xD8D JUMP JUMPDEST SWAP3 POP POP DUP2 SWAP1 SSTORE POP PUSH0 DUP3 GT ISZERO PUSH2 0x92A JUMPI DUP2 PUSH1 0x1 PUSH0 PUSH32 0x0 PUSH20 0xFFFFFFFFFFFFFFFFFFFFFFFFFFFFFFFFFFFFFFFF AND PUSH20 0xFFFFFFFFFFFFFFFFFFFFFFFFFFFFFFFFFFFFFFFF AND DUP2 MSTORE PUSH1 0x20 ADD SWAP1 DUP2 MSTORE PUSH1 0x20 ADD PUSH0 KECCAK256 PUSH0 DUP3 DUP3 SLOAD PUSH2 0x89D SWAP2 SWAP1 PUSH2 0x1008 JUMP JUMPDEST SWAP3 POP POP DUP2 SWAP1 SSTORE POP PUSH32 0x0 PUSH20 0xFFFFFFFFFFFFFFFFFFFFFFFFFFFFFFFFFFFFFFFF AND DUP6 PUSH20 0xFFFFFFFFFFFFFFFFFFFFFFFFFFFFFFFFFFFFFFFF AND PUSH32 0xDDF252AD1BE2C89B69C2B068FC378DAA952BA7F163C4A11628F55A4DF523B3EF DUP5 PUSH1 0x40 MLOAD PUSH2 0x921 SWAP2 SWAP1 PUSH2 0xBA4 JUMP JUMPDEST PUSH1 0x40 MLOAD DUP1 SWAP2 SUB SWAP1 LOG3 JUMPDEST DUP1 PUSH1 0x1 PUSH0 DUP7 PUSH20 0xFFFFFFFFFFFFFFFFFFFFFFFFFFFFFFFFFFFFFFFF AND PUSH20 0xFFFFFFFFFFFFFFFFFFFFFFFFFFFFFFFFFFFFFFFF AND DUP2 MSTORE PUSH1 0x20 ADD SWAP1 DUP2 MSTORE PUSH1 0x20 ADD PUSH0 KECCAK256 PUSH0 DUP3 DUP3 SLOAD PUSH2 0x976 SWAP2 SWAP1 PUSH2 0x1008 JUMP JUMPDEST SWAP3 POP POP DUP2 SWAP1 SSTORE POP DUP4 PUSH20 0xFFFFFFFFFFFFFFFFFFFFFFFFFFFFFFFFFFFFFFFF AND DUP6 PUSH20 0xFFFFFFFFFFFFFFFFFFFFFFFFFFFFFFFFFFFFFFFF AND PUSH32 0xDDF252AD1BE2C89B69C2B068FC378DAA952BA7F163C4A11628F55A4DF523B3EF DUP4 PUSH1 0x40 MLOAD PUSH2 0x9DA SWAP2 SWAP1 PUSH2 0xBA4 JUMP JUMPDEST PUSH1 0x40 MLOAD DUP1 SWAP2 SUB SWAP1 LOG3 POP POP POP POP POP JUMP JUMPDEST PUSH0 DUP2 MLOAD SWAP1 POP SWAP2 SWAP1 POP JUMP JUMPDEST PUSH0 DUP3 DUP3 MSTORE PUSH1 0x20 DUP3 ADD SWAP1 POP SWAP3 SWAP2 POP POP JUMP JUMPDEST PUSH0 JUMPDEST DUP4 DUP2 LT ISZERO PUSH2 0xA20 JUMPI DUP1 DUP3 ADD MLOAD DUP2 DUP5 ADD MSTORE PUSH1 0x20 DUP2 ADD SWAP1 POP PUSH2 0xA05 JUMP JUMPDEST PUSH0 DUP5 DUP5 ADD MSTORE POP POP POP POP JUMP JUMPDEST PUSH0 PUSH1 0x1F NOT PUSH1 0x1F DUP4 ADD AND SWAP1 POP SWAP2 SWAP1 POP JUMP JUMPDEST PUSH0 PUSH2 0xA45 DUP3 PUSH2 0x9E9 JUMP JUMPDEST PUSH2 0xA4F DUP2 DUP6 PUSH2 0x9F3 JUMP JUMPDEST SWAP4 POP PUSH2 0xA5F DUP2 DUP6 PUSH1 0x20 DUP7 ADD PUSH2 0xA03 JUMP JUMPDEST PUSH2 0xA68 DUP2 PUSH2 0xA2B JUMP JUMPDEST DUP5 ADD SWAP2 POP POP SWAP3 SWAP2 POP POP JUMP JUMPDEST PUSH0 PUSH1 0x20 DUP3 ADD SWAP1 POP DUP2 DUP2 SUB PUSH0 DUP4 ADD MSTORE PUSH2 0xA8B DUP2 DUP5 PUSH2 0xA3B JUMP JUMPDEST SWAP1 POP SWAP3 SWAP2 POP POP JUMP JUMPDEST PUSH0 DUP1 REVERT JUMPDEST PUSH0 PUSH20 0xFFFFFFFFFFFFFFFFFFFFFFFFFFFFFFFFFFFFFFFF DUP3 AND SWAP1 POP SWAP2 SWAP1 POP JUMP JUMPDEST PUSH0 PUSH2 0xAC0 DUP3 PUSH2 0xA97 JUMP JUMPDEST SWAP1 POP SWAP2 SWAP1 POP JUMP JUMPDEST PUSH2 0xAD0 DUP2 PUSH2 0xAB6 JUMP JUMPDEST DUP2 EQ PUSH2 0xADA JUMPI PUSH0 DUP1 REVERT JUMPDEST POP JUMP JUMPDEST PUSH0 DUP2 CALLDATALOAD SWAP1 POP PUSH2 0xAEB DUP2 PUSH2 0xAC7 JUMP JUMPDEST SWAP3 SWAP2 POP POP JUMP JUMPDEST PUSH0 DUP2 SWAP1 POP SWAP2 SWAP1 POP JUMP JUMPDEST PUSH2 0xB03 DUP2 PUSH2 0xAF1 JUMP JUMPDEST DUP2 EQ PUSH2 0xB0D JUMPI PUSH0 DUP1 REVERT JUMPDEST POP JUMP JUMPDEST PUSH0 DUP2 CALLDATALOAD SWAP1 POP PUSH2 0xB1E DUP2 PUSH2 0xAFA JUMP JUMPDEST SWAP3 SWAP2 POP POP JUMP JUMPDEST PUSH0 DUP1 PUSH1 0x40 DUP4 DUP6 SUB SLT ISZERO PUSH2 0xB3A JUMPI PUSH2 0xB39 PUSH2 0xA93 JUMP JUMPDEST JUMPDEST PUSH0 PUSH2 0xB47 DUP6 DUP3 DUP7 ADD PUSH2 0xADD JUMP JUMPDEST SWAP3 POP POP PUSH1 0x20 PUSH2 0xB58 DUP6 DUP3 DUP7 ADD PUSH2 0xB10 JUMP JUMPDEST SWAP2 POP POP SWAP3 POP SWAP3 SWAP1 POP JUMP JUMPDEST PUSH0 DUP2 ISZERO ISZERO SWAP1 POP SWAP2 SWAP1 POP JUMP JUMPDEST PUSH2 0xB76 DUP2 PUSH2 0xB62 JUMP JUMPDEST DUP3 MSTORE POP POP JUMP JUMPDEST PUSH0 PUSH1 0x20 DUP3 ADD SWAP1 POP PUSH2 0xB8F PUSH0 DUP4 ADD DUP5 PUSH2 0xB6D JUMP JUMPDEST SWAP3 SWAP2 POP POP JUMP JUMPDEST PUSH2 0xB9E DUP2 PUSH2 0xAF1 JUMP JUMPDEST DUP3 MSTORE POP POP JUMP JUMPDEST PUSH0 PUSH1 0x20 DUP3 ADD SWAP1 POP PUSH2 0xBB7 PUSH0 DUP4 ADD DUP5 PUSH2 0xB95 JUMP JUMPDEST SWAP3 SWAP2 POP POP JUMP JUMPDEST PUSH0 DUP1 PUSH0 PUSH1 0x60 DUP5 DUP7 SUB SLT ISZERO PUSH2 0xBD4 JUMPI PUSH2 0xBD3 PUSH2 0xA93 JUMP JUMPDEST JUMPDEST PUSH0 PUSH2 0xBE1 DUP7 DUP3 DUP8 ADD PUSH2 0xADD JUMP JUMPDEST SWAP4 POP POP PUSH1 0x20 PUSH2 0xBF2 DUP7 DUP3 DUP8 ADD PUSH2 0xADD JUMP JUMPDEST SWAP3 POP POP PUSH1 0x40 PUSH2 0xC03 DUP7 DUP3 DUP8 ADD PUSH2 0xB10 JUMP JUMPDEST SWAP2 POP POP SWAP3 POP SWAP3 POP SWAP3 JUMP JUMPDEST PUSH0 PUSH1 0xFF DUP3 AND SWAP1 POP SWAP2 SWAP1 POP JUMP JUMPDEST PUSH2 0xC22 DUP2 PUSH2 0xC0D JUMP JUMPDEST DUP3 MSTORE POP POP JUMP JUMPDEST PUSH0 PUSH1 0x20 DUP3 ADD SWAP1 POP PUSH2 0xC3B PUSH0 DUP4 ADD DUP5 PUSH2 0xC19 JUMP JUMPDEST SWAP3 SWAP2 POP POP JUMP JUMPDEST PUSH0 PUSH1 0x20 DUP3 DUP5 SUB SLT ISZERO PUSH2 0xC56 JUMPI PUSH2 0xC55 PUSH2 0xA93 JUMP JUMPDEST JUMPDEST PUSH0 PUSH2 0xC63 DUP5 DUP3 DUP6 ADD PUSH2 0xADD JUMP JUMPDEST SWAP2 POP POP SWAP3 SWAP2 POP POP JUMP JUMPDEST PUSH2 0xC75 DUP2 PUSH2 0xAB6 JUMP JUMPDEST DUP3 MSTORE POP POP JUMP JUMPDEST PUSH0 PUSH1 0x20 DUP3 ADD SWAP1 POP PUSH2 0xC8E PUSH0 DUP4 ADD DUP5 PUSH2 0xC6C JUMP JUMPDEST SWAP3 SWAP2 POP POP JUMP JUMPDEST PUSH0 DUP1 PUSH1 0x40 DUP4 DUP6 SUB SLT ISZERO PUSH2 0xCAA JUMPI PUSH2 0xCA9 PUSH2 0xA93 JUMP JUMPDEST JUMPDEST PUSH0 PUSH2 0xCB7 DUP6 DUP3 DUP7 ADD PUSH2 0xADD JUMP JUMPDEST SWAP3 POP POP PUSH1 0x20 PUSH2 0xCC8 DUP6 DUP3 DUP7 ADD PUSH2 0xADD JUMP JUMPDEST SWAP2 POP POP SWAP3 POP SWAP3 SWAP1 POP JUMP JUMPDEST PUSH32 0x45524332303A207472616E7366657220616D6F756E7420657863656564732061 PUSH0 DUP3 ADD MSTORE PUSH32 0x6C6C6F77616E6365000000000000000000000000000000000000000000000000 PUSH1 0x20 DUP3 ADD MSTORE POP JUMP JUMPDEST PUSH0 PUSH2 0xD2C PUSH1 0x28 DUP4 PUSH2 0x9F3 JUMP JUMPDEST SWAP2 POP PUSH2 0xD37 DUP3 PUSH2 0xCD2 JUMP JUMPDEST PUSH1 0x40 DUP3 ADD SWAP1 POP SWAP2 SWAP1 POP JUMP JUMPDEST PUSH0 PUSH1 0x20 DUP3 ADD SWAP1 POP DUP2 DUP2 SUB PUSH0 DUP4 ADD MSTORE PUSH2 0xD59 DUP2 PUSH2 0xD20 JUMP JUMPDEST SWAP1 POP SWAP2 SWAP1 POP JUMP JUMPDEST PUSH32 0x4E487B7100000000000000000000000000000000000000000000000000000000 PUSH0 MSTORE PUSH1 0x11 PUSH1 0x4 MSTORE PUSH1 0x24 PUSH0 REVERT JUMPDEST PUSH0 PUSH2 0xD97 DUP3 PUSH2 0xAF1 JUMP JUMPDEST SWAP2 POP PUSH2 0xDA2 DUP4 PUSH2 0xAF1 JUMP JUMPDEST SWAP3 POP DUP3 DUP3 SUB SWAP1 POP DUP2 DUP2 GT ISZERO PUSH2 0xDBA JUMPI PUSH2 0xDB9 PUSH2 0xD60 JUMP JUMPDEST JUMPDEST SWAP3 SWAP2 POP POP JUMP JUMPDEST PUSH32 0x45524332303A207472616E736665722066726F6D20746865207A65726F206164 PUSH0 DUP3 ADD MSTORE PUSH32 0x6472657373000000000000000000000000000000000000000000000000000000 PUSH1 0x20 DUP3 ADD MSTORE POP JUMP JUMPDEST PUSH0 PUSH2 0xE1A PUSH1 0x25 DUP4 PUSH2 0x9F3 JUMP JUMPDEST SWAP2 POP PUSH2 0xE25 DUP3 PUSH2 0xDC0 JUMP JUMPDEST PUSH1 0x40 DUP3 ADD SWAP1 POP SWAP2 SWAP1 POP JUMP JUMPDEST PUSH0 PUSH1 0x20 DUP3 ADD SWAP1 POP DUP2 DUP2 SUB PUSH0 DUP4 ADD MSTORE PUSH2 0xE47 DUP2 PUSH2 0xE0E JUMP JUMPDEST SWAP1 POP SWAP2 SWAP1 POP JUMP JUMPDEST PUSH32 0x45524332303A207472616E7366657220746F20746865207A65726F2061646472 PUSH0 DUP3 ADD MSTORE PUSH32 0x6573730000000000000000000000000000000000000000000000000000000000 PUSH1 0x20 DUP3 ADD MSTORE POP JUMP JUMPDEST PUSH0 PUSH2 0xEA8 PUSH1 0x23 DUP4 PUSH2 0x9F3 JUMP JUMPDEST SWAP2 POP PUSH2 0xEB3 DUP3 PUSH2 0xE4E JUMP JUMPDEST PUSH1 0x40 DUP3 ADD SWAP1 POP SWAP2 SWAP1 POP JUMP JUMPDEST PUSH0 PUSH1 0x20 DUP3 ADD SWAP1 POP DUP2 DUP2 SUB PUSH0 DUP4 ADD MSTORE PUSH2 0xED5 DUP2 PUSH2 0xE9C JUMP JUMPDEST SWAP1 POP SWAP2 SWAP1 POP JUMP JUMPDEST PUSH32 0x45524332303A207472616E7366657220616D6F756E7420657863656564732062 PUSH0 DUP3 ADD MSTORE PUSH32 0x616C616E63650000000000000000000000000000000000000000000000000000 PUSH1 0x20 DUP3 ADD MSTORE POP JUMP JUMPDEST PUSH0 PUSH2 0xF36 PUSH1 0x26 DUP4 PUSH2 0x9F3 JUMP JUMPDEST SWAP2 POP PUSH2 0xF41 DUP3 PUSH2 0xEDC JUMP JUMPDEST PUSH1 0x40 DUP3 ADD SWAP1 POP SWAP2 SWAP1 POP JUMP JUMPDEST PUSH0 PUSH1 0x20 DUP3 ADD SWAP1 POP DUP2 DUP2 SUB PUSH0 DUP4 ADD MSTORE PUSH2 0xF63 DUP2 PUSH2 0xF2A JUMP JUMPDEST SWAP1 POP SWAP2 SWAP1 POP JUMP JUMPDEST PUSH0 PUSH2 0xF74 DUP3 PUSH2 0xAF1 JUMP JUMPDEST SWAP2 POP PUSH2 0xF7F DUP4 PUSH2 0xAF1 JUMP JUMPDEST SWAP3 POP DUP3 DUP3 MUL PUSH2 0xF8D DUP2 PUSH2 0xAF1 JUMP JUMPDEST SWAP2 POP DUP3 DUP3 DIV DUP5 EQ DUP4 ISZERO OR PUSH2 0xFA4 JUMPI PUSH2 0xFA3 PUSH2 0xD60 JUMP JUMPDEST JUMPDEST POP SWAP3 SWAP2 POP POP JUMP JUMPDEST PUSH32 0x4E487B7100000000000000000000000000000000000000000000000000000000 PUSH0 MSTORE PUSH1 0x12 PUSH1 0x4 MSTORE PUSH1 0x24 PUSH0 REVERT JUMPDEST PUSH0 PUSH2 0xFE2 DUP3 PUSH2 0xAF1 JUMP JUMPDEST SWAP2 POP PUSH2 0xFED DUP4 PUSH2 0xAF1 JUMP JUMPDEST SWAP3 POP DUP3 PUSH2 0xFFD JUMPI PUSH2 0xFFC PUSH2 0xFAB JUMP JUMPDEST JUMPDEST DUP3 DUP3 DIV SWAP1 POP SWAP3 SWAP2 POP POP JUMP JUMPDEST PUSH0 PUSH2 0x1012 DUP3 PUSH2 0xAF1 JUMP JUMPDEST SWAP2 POP PUSH2 0x101D DUP4 PUSH2 0xAF1 JUMP JUMPDEST SWAP3 POP DUP3 DUP3 ADD SWAP1 POP DUP1 DUP3 GT ISZERO PUSH2 0x1035 JUMPI PUSH2 0x1034 PUSH2 0xD60 JUMP JUMPDEST JUMPDEST SWAP3 SWAP2 POP POP JUMP INVALID LOG2 PUSH5 0x6970667358 0x22 SLT KECCAK256 0xD3 0xDA DUP2 CALLVALUE 0xDB GAS 0xF8 MULMOD SWAP4 PUSH8 0x8AAEB021DFD01F2 DUP16 0xE3 0xE6 0xB8 PUSH23 0x34742C0E8226D7381064736F6C63430008180033000000 "
				},
				"gasEstimates": {
					"creation": {
						"codeDepositCost": "841800",
						"executionCost": "infinite",
						"totalCost": "infinite"
					},
					"external": {
						"TAX_DENOMINATOR()": "391",
						"TAX_RATE()": "325",
						"allowance(address,address)": "infinite",
						"approve(address,uint256)": "infinite",
						"balanceOf(address)": "2940",
						"decimals()": "420",
						"name()": "infinite",
						"owner()": "infinite",
						"symbol()": "infinite",
						"totalSupply()": "2469",
						"transfer(address,uint256)": "infinite",
						"transferFrom(address,address,uint256)": "infinite"
					},
					"internal": {
						"_transfer(address,address,uint256)": "infinite"
					}
				},
				"methodIdentifiers": {
					"TAX_DENOMINATOR()": "a51c9ace",
					"TAX_RATE()": "83f170be",
					"allowance(address,address)": "dd62ed3e",
					"approve(address,uint256)": "095ea7b3",
					"balanceOf(address)": "70a08231",
					"decimals()": "313ce567",
					"name()": "06fdde03",
					"owner()": "8da5cb5b",
					"symbol()": "95d89b41",
					"totalSupply()": "18160ddd",
					"transfer(address,uint256)": "a9059cbb",
					"transferFrom(address,address,uint256)": "23b872dd"
				}
			},
			"storageLayout": {
				"storage": [
					{
						"astId": 13,
						"contract": "CIC.sol:Cicerone",
						"label": "totalSupply",
						"offset": 0,
						"slot": "0",
						"type": "t_uint256"
					},
					{
						"astId": 17,
						"contract": "CIC.sol:Cicerone",
						"label": "_balances",
						"offset": 0,
						"slot": "1",
						"type": "t_mapping(t_address,t_uint256)"
					},
					{
						"astId": 23,
						"contract": "CIC.sol:Cicerone",
						"label": "_allowances",
						"offset": 0,
						"slot": "2",
						"type": "t_mapping(t_address,t_mapping(t_address,t_uint256))"
					}
				],
				"types": {
					"t_address": {
						"encoding": "inplace",
						"label": "address",
						"numberOfBytes": "20"
					},
					"t_mapping(t_address,t_mapping(t_address,t_uint256))": {
						"encoding": "mapping",
						"key": "t_address",
						"label": "mapping(address => mapping(address => uint256))",
						"numberOfBytes": "32",
						"value": "t_mapping(t_address,t_uint256)"
					},
					"t_mapping(t_address,t_uint256)": {
						"encoding": "mapping",
						"key": "t_address",
						"label": "mapping(address => uint256)",
						"numberOfBytes": "32",
						"value": "t_uint256"
					},
					"t_uint256": {
						"encoding": "inplace",
						"label": "uint256",
						"numberOfBytes": "32"
					}
				}
			},
			"userdoc": {
				"kind": "user",
				"methods": {
					"allowance(address,address)": {
						"notice": "查询授权额度"
					},
					"approve(address,uint256)": {
						"notice": "授权spender可以从msg.sender处转账一定数量的代币"
					},
					"balanceOf(address)": {
						"notice": "查询特定地址的代币余额"
					},
					"constructor": {
						"notice": "合约部署时执行一次"
					},
					"transfer(address,uint256)": {
						"notice": "标准转账函数"
					},
					"transferFrom(address,address,uint256)": {
						"notice": "授权转账函数，由被授权方调用"
					}
				},
				"notice": "Cicerone ERC-20代币合约，代币符号为CIC，总供应量10亿，6个小数位，包含1%转账税费。",
				"version": 1
			}
		}
	}
}